:020000040800F2
:10000000080B002049020008DF330008692F0008B0
:10001000DD33000875060008C94300080000000031
:100020000000000000000000000000000D3A000881
:10003000F706000800000000E13300080F3A00084E
:1000400063020008630200086302000863020008FC
:1000500063020008630200086302000863020008EC
:1000600063020008630200086302000863020008DC
:100070006302000863020008B1060008BD0600081C
:1000800063020008630200086302000863020008BC
:1000900063020008630200086302000863020008AC
:1000A000993A00086302000863020008630200082E
:1000B0006302000863020008A53A00086302000812
:1000C000630200086302000863020008630200087C
:1000D0009536000863020008630200086302000806
:1000E000630200086302000863020008630200085C
:1000F000630200086302000863020008630200084C
:10010000630200086302000863020008630200083B
:10011000630200086302000863020008630200082B
:10012000630200086302000863020008630200081B
:10013000630200086302000863020008630200080B
:1001400063020008630200086302000863020008FB
:1001500063020008630200086302000863020008EB
:1001600063020008630200086302000863020008DB
:100170006302000863020008630200080000000038
:10018000630200086302000800F002F800F04CF877
:100190000AA090E8000C82448344AAF10107DA45E2
:1001A00001D100F041F8AFF2090EBAE80F0013F0E8
:1001B000010F18BFFB1A43F001031847107A000023
:1001C000307A00000A4410F8014B14F00F0508BF04
:1001D00010F8015B240908BF10F8014B6D1E05D013
:1001E00010F8013B6D1E01F8013BF9D1641E03D0EC
:1001F000641E01F8015BFBD19142E4D3704700001B
:100200000023002400250026103A28BF78C1FBD81F
:10021000520728BF30C148BF0B6070471FB506F0BA
:100220007EFF1FBD10B510BD00F05AF91146FFF753
:10023000F5FF05F071FD00F078F903B4FFF7F2FF68
:1002400003BC00F07BF900000948804709480047DB
:10025000FEE7FEE7FEE7FEE7FEE7FEE7FEE7FEE776
:10026000FEE7FEE704480549054A064B70470000D3
:10027000893A00088901000808050020080B0020C1
:10028000080700200807002053EA020C00F06980EC
:100290002DE9F04B4FF00006002B1FBFB3FA83F59A
:1002A00003FA05F424FA05F65E4012BF1643B2FACB
:1002B00082F502FA05F4C5F120051EBF22FA05FCFD
:1002C00044EA0C04203556EA044C4FEA144418BFA3
:1002D000641C4FF000084FF00009904271EB030CD2
:1002E00039D3002919BFB1FA81F701FA07F6B0FA3C
:1002F00080F700FA07F6C7F120071EBF20FA07FCB7
:1003000046EA0C062037B6FBF4FCA7EB0507103FC6
:1003100007F01F0BCBF120060CFA0BFB2CFA06F6AC
:1003200044BFB3460026202FA4BF5E464FF0000B0B
:100330005BEA060C08BF4FF0010B19EB0B09ABFB96
:10034000027C48EB0608C01B06FB02CC0BFB03CC6F
:1003500071EB0C01C1E70B46024641464846BDE839
:10036000F08B13B54FF000004FF00001AFF30080A9
:10037000BDE81C407047032A40F2308010F0030CA7
:1003800000F0158011F8013BBCF1020F624498BFE8
:1003900011F801CB00F8013B38BF11F8013BA2F185
:1003A000040298BF00F801CB38BF00F8013B11F000
:1003B000030300F02580083AC0F0088051F8043BA0
:1003C000083A51F804CBA0E80810F5E7121D5CBF0D
:1003D00051F8043B40F8043BAFF30080D20724BF40
:1003E00011F8013B11F801CB48BF11F8012B24BFD4
:1003F00000F8013B00F801CB48BF00F8012B704723
:1004000010B5203AC0F00B80B1E81850203AA0E8AF
:100410001850B1E81850A0E81850BFF4F5AF5FEAE3
:10042000027C24BFB1E81850A0E8185044BF18C996
:1004300018C0BDE810405FEA827C24BF51F8043B3D
:1004400040F8043B08BF7047D20728BF31F8023B91
:1004500048BF11F8012B28BF20F8023B48BF00F825
:10046000012B70474FF0000200B5134694469646A4
:10047000203922BFA0E80C50A0E80C50B1F12001B7
:10048000BFF4F7AF090728BFA0E80C5048BF0CC065
:100490005DF804EB890028BF40F8042B08BF7047C3
:1004A00048BF20F8022B11F0804F18BF00F8012B35
:1004B000704770477047704710B500F009F8006842
:1004C00010BD10B5044600F003F8046010BD000034
:1004D00000487047A404002000487047A40400208E
:1004E0007546FFF7F9FFAE4605006946534620F012
:1004F0000700854618B020B5FFF7B4FEBDE82040E0
:100500004FF000064FF000074FF000084FF0000BCF
:1005100021F00701AC46ACE8C009ACE8C009ACE882
:10052000C009ACE8C0098D46704710B50446AFF36A
:1005300000802046BDE81040FFF77FBE014918202B
:10054000ABBEFEE726000200704700009FED221AB6
:100550009FED222A20EE010AB5EE001A30EE010AC4
:10056000BDEEC01A11EE100AB5EE400AF1EE10FA17
:10057000B8BF013801EE100AB8EEC11A30EE410AD8
:1005800020EE020ABDEEC01A9FED152A11EE100AE8
:10059000002130EE021AB1EB502F47F2C8311CBFD8
:1005A0000020B0EE410AC0F6000101EE100A01EB96
:1005B0008001B8EE411A30EE410A91ED001A91ED3A
:1005C000012AB7EE003A33EE403A23EE011A20EE4C
:1005D000020A31EE000A704783F9223E000000440F
:1005E000000000C49FED201A9FED202A20EE010A92
:1005F000BDEEC01A11EE100AB5EE400AF1EE10FA87
:10060000B8BF013801EE100AB8EEC11A30EE410A47
:1006100020EE020ABDEEC01A9FED152A11EE100A57
:10062000002130EE021AB1EB502F47F2C8311CBF47
:100630000020B0EE410AC0F6000101EE100A01EB05
:100640008001B8EE411A30EE410A91ED001A91EDA9
:10065000012AB7EE003A33EE403A23EE011A20EEBB
:10066000020A31EE000A704783F9223E000000447E
:10067000000000C4FEE7000010B50021034801F0AF
:1006800045FF024900200968486310BDC0020020F0
:10069000024900200968486370470000C00200203A
:1006A00002490A200968486370470000C002002020
:1006B000014800F04AB80000F4030020014800F0AF
:1006C00044B800003C04002030B590F8444004F0E9
:1006D0001C050124AC40056C6C6004686360836891
:1006E000102B036803D099600068C26030BD9A6027
:1006F0000068C16030BD704772B6FEE710B590F873
:1007000025100024022903D00421C16301241AE02A
:1007100001680A6822F00E020A6001680A6822F085
:1007200001020A6090F84410036C01F01C020121E0
:1007300001FA02F25A6080F82510002180F8241096
:10074000816B01B18847204610BDF0B4016C0C6884
:1007500001680D6890F8442002F01C06042202FA99
:1007600006F3234211D06B070FD50B689B0603D409
:100770000B6823F004030B6090F8441001F01C0197
:100780008A40016C4A60016B1DE0022303FA06F700
:1007900027424FF0000C4FF0010218D0AF0716D5DA
:1007A0000C68A40605D40C6824F00A040C6080F8D8
:1007B000252090F8441001F01C018B40016C4B6027
:1007C00080F824C0C16A00291AD0F0BC0847082369
:1007D000B340234214D02B0712D50B6823F00E032D
:1007E0000B6090F84410036C01F01C0102FA01F157
:1007F0005960C26380F8252080F824C0416BE2E78D
:10080000F0BC704770B568B12B4C036814212B4ABB
:10081000A34209D22A4C1C44B4FBF1F18900C0E97F
:1008200010210BE0012070BD234C64421C44B4FB3A
:10083000F1F189004164204908390164022180F8FE
:1008400025101C6847F6F0718C43D0E90215294346
:10085000D0E904563543294385692943C5692943AD
:10086000056A2943214319608168B1F5804F19D089
:10087000036C0F21934202D152F8A83F02E00E4AC6
:10088000A032136890F8444004F01C04A1408B434C
:10089000136090F84430416803F01C0399401368DA
:1008A000194311600021C163012280F8252080F8DE
:1008B0002410084670BD00000804024000000240F9
:1008C000F8FFFDBF70B5044690F82400002501280C
:1008D0000CD0012084F8240094F825600020012E1B
:1008E00006D084F824000225284670BD022070BD81
:1008F000022684F82560E0632068066826F0010679
:1009000006602046FFF7E0FE206B002820680168A3
:1009100002D041F00E0106E021F0040101602068E0
:10092000016841F00A0101602068016841F001019D
:100930000160D9E770B5044600F022F90546601C55
:1009400002D004480078044400F01AF9401BA04289
:10095000FAD370BD180100202DE9F04FDFF8EC91BB
:1009600000220127A9F1040B85B003254FF00F0CDD
:1009700009F1040AABF1040EE0E000BF07FA02F44B
:1009800016EA04037ED00E7906F00306012E01D08C
:10099000022E1FD186680096560005FA06F80496C6
:1009A000009E26EA08060096D1F80C80049E08FAFC
:1009B00006F8009E48EA0608C0F80880466891F8E4
:1009C0000480A643C8F3001808FA02F848EA0608AB
:1009D000C0F80480D1F804806FEA0806B6070AD18F
:1009E000C66AA643C8F3C00494403443C4620C7979
:1009F000E443A4070AD0C4684FEA420805FA08F69F
:100A0000B4438E6806FA08F62643C6600C7904F0F3
:100A10000304022C11D1D40800EB84060296D6F808
:100A200020805407E60E0CFA06F428EA04080C6944
:100A3000B440029E44EA08043462046856000296F8
:100A400005FA06F6B4430E7906F00308029E08FA8A
:100A500006F848EA0408C0F800804C6814F4403FE7
:100A60006BD03B4C266E46F001062666246E22F0C3
:100A7000030604F001040094364C34440294A46844
:100A8000960700E059E04FEA16780CFA08F6B443EE
:100A9000B0F1904F04D0304EB04203D101261BE09C
:100AA000002619E02D4EB04201D1022614E02C4E52
:100AB000B04201D103260FE02A4EB04201D10426F4
:100AC0000AE0294EB04201D1052605E0274EB0428A
:100AD00001D1062600E0072606FA08F62643029C06
:100AE000A660D9F800404E46D1F804809C435FEAE6
:100AF000C82800D51C433460DAF800405646D1F8C7
:100B000004809C435FEA882800D51C433460DBF8EE
:100B100000405E46D1F804809C435FEA883800D5E7
:100B20001C433460DEF800407646D1F804809C43D4
:100B30005FEAC83800D51C433460521C0B681E465F
:100B4000D3407FF41BAF05B000F012B80804014099
:100B50000010024000000140000400480008004866
:100B6000000C00480010004800140048001800481D
:100B700030BCBDE8C08F0AB18161704781627047A7
:100B80000148806870470000180100200248816811
:100B900002781144816070471801002010B50024CC
:100BA000032000F071F80F2000F008F808B10124CC
:100BB00001E000F025F8204610BD000070B50E4E93
:100BC00005460024307898B14FF47A71B1FBF0F00B
:100BD0000A490968B1FBF0F001F0ECFB40B9102DB7
:100BE00006D200222946501E00F02EF8756000E063
:100BF0000124204670BD00001801002024010020BF
:100C0000094808B5016E41F001010166016E01F06D
:100C100001010091816D41F080518165806D00F08E
:100C20008050009008BD000000100240002809DB41
:100C300000F01F02012191404009800000F1E020F6
:100C4000C0F8001170470000F0B40E4B1B680C4652
:100C5000C3F30223C3F10705042D00D90425191D90
:100C6000072901D2002300E0DB1E012606FA05F168
:100C7000491E214099409E40761E16403143F0BCEB
:100C800003F0BBBB0CED00E0064900F0070208686A
:100C90004FF6FF03184040EA0220034A1043086061
:100CA000704700000CED00E00000FA051649B0F5B1
:100CB000007F0868C0F3412009D0022805D00868E9
:100CC00020F4C06040F48060086000207047012874
:100CD000FBD0086820F4C06040F4007008600B4846
:100CE0003222006850430A4AB0FBF2F0401C00E098
:100CF000401E4A69520501D50028F9D148694005CE
:100D0000E3D503207047000000700040240100205C
:100D100040420F000248006800F4C06070470000C5
:100D2000007000402DE9F84F044600270088E54D8B
:100D30003E46010504F1200B1DD5606E78B1B0F57B
:100D4000800F11D0B0F5000F04D0B0F5400F22D0C5
:100D500001270FE0E86840F48030E8601BE00021E4
:100D6000201D02F03FFB03E00021584602F0D0FBBB
:100D7000070010D03E462088C00426D5A06EC0B122
:100D8000B0F1807F1AD0B0F1007F0DD0B0F1407F7C
:100D900019D0012718E0D5F88800616E20F44000D2
:100DA0000843C5F88800E6E7E86840F48030E8606A
:100DB00009E00021201D02F015FB03E00021584648
:100DC00002F0A6FB0746F7B13E46206880033AD5FD
:100DD000A86D4FF00008C00009D4A86D40F0805005
:100DE000A865A86D4FF0010800F080500090DFF872
:100DF000D8A2DAF8001041F48071CAF80010FFF7A9
:100E0000BFFE814610E0D5F88800A16E20F040704A
:100E10000843C5F88800D8E7FFF7B2FEA0EB090049
:100E2000022801D9032705E0DAF80000C005F3D550
:100E3000002F7CD04FEA0706B8F1000F03D0A86D51
:100E400020F08050A8652078C00707D0D5F888002A
:100E5000A16B20F003000843C5F8880020788007C4
:100E600007D5D5F88800E16B20F00C000843C5F8E1
:100E700088002078400707D5D5F88800216C20F03D
:100E800030000843C5F888002078000707D5D5F85A
:100E90008800616C20F0C0000843C5F88800207805
:100EA000C00607D5D5F88800A16C20F4407008432F
:100EB000C5F888002078800607D5D5F88800E16C51
:100EC00020F440600843C5F888002088800507D5D5
:100ED000D5F88800E16D20F440200843C5F888006B
:100EE0002088400507D5D5F88800216E20F44010F1
:100EF0000843C5F888002078400607D5D5F8880053
:100F0000216D20F440500843C5F888002078000681
:100F100007D5D5F88800616D20F440400843C5F836
:100F200088002088C00509D5D5F8880000E01CE0BD
:100F3000A16D20F440300843C5F8880020884FF0A8
:100F4000006780044FF080684FD5D5F88800E16EC7
:100F500020F040600843C5F88800E06EB8423CD1FC
:100F6000E86840F48010E8603FE0D5F8900010F4A5
:100F7000407015D0D4F88410814211D0D5F890007B
:100F8000D5F8901020F4407041F48031C5F89010ED
:100F9000D5F8901021F48031C5F89010C5F8900074
:100FA000C00710D0FFF7ECFD074641F2883906E094
:100FB000FFF7E6FDC11B494501D903263CE7D5F8FB
:100FC00090008007F4D5D5F89000D4F8841020F470
:100FD00040700843C5F890002EE7404505D1012137
:100FE000201D02F0FFF900B106462068000317D566
:100FF000D5F88800216F20F040600843C5F88800CC
:10100000206FB84204D1E86840F48010E86007E03F
:10101000404505D10121201D02F0E4F900B106464A
:101020002068400317D5D5F88800616F20F0406034
:101030000843C5F88800606FB84204D1E86840F4FE
:101040008010E86007E0404505D10121201D02F035
:10105000C9F900B10646208840041AD5D5F88800A1
:10106000A16F20F040500843C5F88800A06FB0F190
:10107000805F03D0B0F1005F05D00AE00221201D9F
:1010800002F0B0F903E00221584602F041FA00B143
:1010900006462088000407D5D5F88800E16F20F0C7
:1010A00080400843C5F888002068C00307D555F87C
:1010B000880FD4F8801020F00040084328603046A4
:1010C00000F004B8001002400070004018BCBDE8F9
:1010D000E08F00002DE9F0470F4605006BD0494E28
:1010E000306800F00700B84209D2306820F00700ED
:1010F00038433060306800F00700B8425BD1287890
:10110000414C80070AD5A868A16801F0F001884227
:1011100004D9A16821F0F0010143A1602878C0073B
:101120002CD06868032811D0022812D0216898B109
:10113000490500293FDAA16821F003010143A160BC
:10114000FFF71EFD804641F2883910E021688901D1
:10115000EFE721688903ECE78907EAE7FFF710FD6D
:10116000A0EB0801494502D90320BDE8F087A0683B
:10117000696800F00C00B0EB810FEFD12878800790
:101180000AD5A868A16801F0F001884204D2A168DC
:1011900021F0F0010143A160306800F00700B8427F
:1011A0000BD9306820F0070038433060306800F019
:1011B0000700B84201D00120D7E72878400705D5BD
:1011C000A068E96820F4E0600843A0602878000780
:1011D00006D5A068296920F4605040EAC100A060EB
:1011E00000F03EF8A168094AC1F30311515C01F017
:1011F0001F01C8400649086006480068BDE8F0477E
:10120000FFF7DCBC002002400010024054720008CE
:10121000240100201C010020054806490068896857
:10122000054AC1F30221515C01F01F01C84070471B
:10123000240100200010024094720008054806496D
:1012400000688968054AC1F3C221515C01F01F01A1
:10125000C84070472401002000100240947200082A
:1012600070B52549002318468A68CC6812F00C0234
:1012700004F00306214C4FEA640509D00C2A05D07E
:10128000042A32D0082A00D1284670BD012E10D180
:101290000B681B0704D4D1F89430C3F3032302E096
:1012A0000B68C3F30313164E56F82330DAB10C2A39
:1012B000EBD1C86800F00300022818D0032818D02A
:1012C0001846CA68CB68C2F30212C3F3062343432D
:1012D000521CB3FBF2F2C868C0F34160401C4000EE
:1012E000B2FBF0F070BD184670BD204670BD2046C0
:1012F000E7E72846E5E70000001002400024F4007C
:10130000647200082DE9F84304006FD0FD4DA86811
:1013100000F00C06E86800F003072078C00664D5EA
:1013200076B10C2E01D1012F0AD0A06900282868BF
:101330007AD040F001002860FFF722FC80465DE093
:101340002868800702D5A0690028DED0216A2868B5
:10135000000703D5286800F0F00004E0D5F89400F9
:10136000F02202EA1010814216D9084602F054F920
:1013700000283BD1286840F0080028602868216ACE
:1013800020F0F000084328606868E16920F47F409D
:1013900040EA0120686016E0286840F008002860F4
:1013A0002868216A20F0F000084328606868E16935
:1013B00020F47F4040EA0120686026B9206A02F0EC
:1013C0002BF90028D5D1FFF74BFFA968CE4AC1F30E
:1013D0000311515C01F01F01C840CC490860CC48A2
:1013E0000068FFF7EBFB00287ED12EE0CAE000BFCB
:1013F000FFF7C6FBA0EB0800022876D82868800714
:10140000F6D5286840F0080028602868216A20F096
:10141000F000084328606868E16920F47F4040EAF2
:101420000120686011E0FFE720F001002860FFF76D
:10143000A7FB804606E000BFFFF7A2FBA0EB080079
:101440000228DAD828688007F6D42078C00740D070
:10145000082E18D00C2E01D1032F14D06068B0F5DF
:10146000803F17D0B0F5A02F286817D020F4803027
:101470002860286820F4802028606068E0B1FFF7C9
:101480007FFB804614E02868800322D5606800282E
:1014900078D01EE0286840F48030EDE740F48020EA
:1014A0002860F7E7FFF76CFBA0EB08006428A4D8DE
:1014B00028688003F6D50CE0FFF762FB804605E064
:1014C000FFF75EFBA0EB0800642896D8286880032D
:1014D000F6D4207880073BD5042E11D00C2E01D1F4
:1014E000022F0DD0E06801E086E1D6E000282868F0
:1014F0001ED040F480702860FFF742FB07460CE0E6
:10150000286840050CD5E0680028C1D008E000BF7D
:10151000FFF736FBC01B022893D828684005F7D593
:101520006868217C20F0F85040EA016068600FE0B4
:1015300020F480702860FFF723FB074605E000BF1A
:10154000FFF71EFBC01B0228B1D828684005F7D45E
:101550002078000729D560690028D5F8940012D0BA
:1015600040F00100C5F89400FFF70AFB074604E0CD
:10157000FFF706FBC01B022899D8D5F89400800716
:10158000F6D512E000E120F00100C5F89400FFF765
:10159000F7FA074605E000BFFFF7F2FAC01B022882
:1015A0007BD8D5F894008007F6D42078400766D51C
:1015B000A86D0027C00008D4A86D40F08050A86531
:1015C000A86D012700F08050009052480168C905BD
:1015D00012D40168814641F480710160FFF7D0FAAE
:1015E000804605E0FFF7CCFAA0EB0800022854D8AB
:1015F000D9F80000C005F5D5A068012816D0052847
:10160000D5F8900017D020F00100C5F89000D5F86B
:10161000900020F0040000BFC5F89000A06841F2DF
:101620008839C0B1FFF7ACFA80460FE0D5F89000DA
:1016300040F00100F0E740F00400C5F89000F5E745
:10164000FFF79EFAA0EB0801494526D8D5F890008F
:101650008007F5D50EE0FFF793FA804606E000BF5D
:10166000FFF78EFAA0EB0801494516D8D5F890008F
:101670008007F5D41FB1A86D20F08050A865A06A3E
:10168000F0B302280AD00C2E7ED0286820F080709B
:101690002860FFF775FA0446B0E0ACE0E868E26A5B
:1016A00000F00301914229D1216B00F07002090181
:1016B0001039914222D1626B00F4FE41B1EB022F4E
:1016C0001CD1A26B00F40031072A01D0012200E0F6
:1016D0000022914212D1A18F00F4C00249084905AD
:1016E000A1F50011914209D194F8401000F0C060BA
:1016F00049084906A1F1007181425ED00C2E0BE031
:1017000072E0000000100240547200082401002022
:101710001C0100200070004079D02868400176D478
:101720002868C00073D4286820F080702860FFF714
:1017300027FA064605E000BFFFF722FA801B0228C1
:1017400059D828688001F7D4D4E90B016FF00F0253
:1017500002EB01110843A18F5204490802EB4151E9
:10176000626B41EA0221084394F840104FF07E4238
:10177000490802EB41610843A16B090940EA414075
:10178000E968244A114000E041E00843E860286825
:1017900040F080702860E86840F08070E860FFF7F3
:1017A000EFF9044605E000BFFFF7EAF9001B022845
:1017B00021D828688001F7D527E02868800124D443
:1017C000286840F080702860E86840F08070E86029
:1017D000FFF7D6F9044604E0FFF7D2F9001B022810
:1017E00009D828688001F7D50FE000BFFFF7C8F9D6
:1017F000001B022802D90320BDE8F8832868800175
:10180000F4D4E86804490840E8600020F4E70120C7
:10181000F2E700008C809DF9FCFFEEFE70470000AF
:1018200038B5016804464A688868C043430606D54F
:10183000C30704D1D3435B0601D4E16C05E0830701
:1018400008D4D3431B0605D4216D01B02046BDE862
:1018500030400847830603D5430601D5C30551D45C
:10186000D3439B064ED443060AD494F85D30032B31
:1018700049D0236E43F004032366CB688B68009342
:10188000830609D4236E43F0010323668B6800931B
:101890000B6823F040030B60C00506D4206E40F0B7
:1018A00008002066206880680090206E002829D0FB
:1018B0002068416821F0E0014160012084F85D006A
:1018C000900701D4D00722D02068416821F003019D
:1018D0004160114DA06D40B18563A06DFEF70EFF14
:1018E00018B1206E40F040002066606D002809D0DD
:1018F0008563606DFEF702FF002803D0206E40F084
:101900004000206638BDC8688868009038BD204611
:10191000FFF784FF38BD0000A136000870B5040051
:1019200009D0606A002540B125616561A56294F81F
:101930005D0040B10CE0012070BD6068B0F5827FB1
:10194000F4D0E561F2E784F85C50204600F056F8E8
:10195000022084F85D002068016821F040010160E8
:10196000E1684FF4E062914201D9002001E04FF4B8
:101970008050B1F5706F02D0914200D0A562A1886D
:10198000228901F4827102F404421143227C02F0A4
:1019900002021143227D02F001021143228B02F464
:1019A00000721143227F02F03802114394F8202084
:1019B00002F080021143228D02F40052114322688A
:1019C0001160A169042202EA114194F8242000F474
:1019D000805002F01002114394F8342002F0080203
:1019E0001143A28902F470621143014320684160EF
:1019F0002566012084F85D00002070BD2DE9F041CE
:101A000086B0064614216846FEF72CFD354930683D
:101A1000884264D13448816D41F480418165816D93
:101A200001F480410591C16C41F00401C164C16CB5
:101A300001F004010591C16C41F00201C164C06C68
:101A4000022500F0020005900C20CDE9000502AA55
:101A5000002403274FF0050882E8900169462348D7
:101A6000FEF77AFF6802CDE9000502AA694682E81E
:101A700090011F48FEF770FF1F4D1E480127286088
:101A8000C5E901744FF08008C5E903486C61AC6199
:101A9000EC6128462C62FEF7B5FE08B1FEF72CFE7D
:101AA000B565AE621348154D1430E5E80207102005
:101AB000A5E81101114845F81449AC61EC612C62AC
:101AC000FEF7A0FE08B1FEF717FE7565002211466D
:101AD0002420AE62FFF7B8F82420FFF7A7F806B07D
:101AE000BDE8F081003800400010024000080048C6
:101AF0000004004844000240F40300203C0400209D
:101B00002DE9F84F044690F85D001D4616460F4635
:101B100001283FD160684FF00408B0F5827F01D101
:101B2000A06868B3FFF72CF88246002F70D0002E13
:101B30006ED094F85C0001282CD04FF0010984F895
:101B40005C9084F85D804FF00008C4F860802764E2
:101B5000A4F84460A4F84660C4F83880A4F83C8037
:101B6000A4F83E80C4F84C80C4F85080E0684FF47C
:101B7000E0618842206842680ED922F480520DE06C
:101B800084F85D80009313460A46204600F0F9F978
:101B900000F075B80220FBE742F480524260A06872
:101BA000B0F5004F09D12068026822F040020260BF
:101BB0002068026822F480420260206802685206AF
:101BC00003D4026842F040020260E06888421AD9F9
:101BD00039E020688168C9070BD0017B206C017057
:101BE000206C401C2064B4F84600401EA4F8460057
:101BF00009E0FEF7C5FFA0EB0A00A84202D3681C6B
:101C000001D036E0A5B3B4F846000028E1D11EE0CB
:101C10002CE020688168C9070BD0C068216C08805F
:101C2000206C801C2064B4F84600401EA4F84600D6
:101C300009E0FEF7A5FFA0EB0A00A84202D3681C4A
:101C400001D016E0A5B1B4F846000028E1D1524613
:101C50002946204601F0ACFD08B12020206684F81A
:101C60005D9084F85C80206E002891D001208FE781
:101C7000FFE784F85D9084F85C80032088E718BC57
:101C8000BDE8E08F70B5044690F85D0001282BD1C7
:101C9000A36804251BB96068B0F5827F19D009B329
:101CA00002B394F85C0001281ED0012084F85C0087
:101CB00084F85D50002525662164A4F84420A4F82A
:101CC0004620E5642565A587E587B3F5004F0DD06F
:101CD00016E084F85D502046BDE8704013460A4681
:101CE00000F08CBA012070BD022070BD21680A6826
:101CF00022F040020A6021680A6822F480420A60E9
:101D000021684A6822F400524A60E168B1F5E06F48
:101D100005D92068416821F4805141601EE02168A6
:101D20004A6842F480524A60A16D8969B1F5806FBA
:101D300014D121684A6822F480524A60B4F84610EF
:101D4000C90726D021684A6842F400524A60B4F8B4
:101D5000461000EB510000BFA4F84600A16D1C48DE
:101D60000863A16D1B48C862A16D1B484863A06D44
:101D70008563B4F846302168226C0C31A06DFEF703
:101D8000A1FD78B1206E40F01000206684F85C5010
:101D9000A8E72068416821F400514160B4F846008A
:101DA0004008D9E720680168490603D4016841F07A
:101DB0004001016084F85C502068416841F02001D6
:101DC00041602068416841F001014160002070BD20
:101DD000D5360008E9360008B336000802498842C3
:101DE00001D103F02DBE70472C01002070472DE972
:101DF000F84F984616468A460446FEF7C1FE8146CD
:101E000094F85D00012820D1BAF1000F6FD0002EA8
:101E10006DD094F85C00012817D0012784F85C701D
:101E2000032084F85D0000252566C4F838A0A68745
:101E3000E6872564A4F84450A4F846502565E56477
:101E4000A068B0F5004F03D00CE0022000F096B877
:101E50002068016821F0400101602068016841F4B8
:101E60008041016020680168490603D4016841F09F
:101E700040010160E068B0F5E06F606826D908B104
:101E8000012E1FD1A06B21680088C86006E0206881
:101E90008168890709D5A16B0988C160A06B801C86
:101EA000A063E08F401EE0870CE0FEF769FEA0EB28
:101EB0000901414503D3B8F1FF3F03D04BE0B8F12E
:101EC000000F48D0E08F0028E1D139E008B1012EA1
:101ED00033D1E08F0128A06B03D921680088C86046
:101EE00010E021680078087314E0E08725E043E003
:101EF00020688168890713D5E18F0129A16B07D973
:101F00000988C160A06B801CA063E08F801EECE795
:101F100009780173A06B401CA063E08F401EE4E7CA
:101F2000FEF72EFEA0EB0901414503D3B8F1FF3FB8
:101F300003D010E0B8F1000F0DD0E08F0028D7D10A
:101F40004A464146204601F06DFC08B1202020663B
:101F5000A06830B109E084F85D7084F85C5003201B
:101F600074E72068C1688068009084F85D7004F8A8
:101F70005C5F60680028F3D0012067E718BCBDE80B
:101F8000E08F2DE9FF5F1D46934604464FF001099F
:101F90000E9EFEF7F5FD074694F85D006168012886
:101FA00006D0B1F5827F39D1A168B1BB042835D103
:101FB000019800287CD0BBF1000FFBD0002DF9D098
:101FC00094F85C00012829D04FF0010A84F85CA045
:101FD00094F85D00042802D0052084F85D004FF0DD
:101FE0000008C4F86080C4F840B0A4F84650A4F8D3
:101FF00044500199A163E587A587C4F84C80C4F8D3
:102000005080E0684FF4E061884201D8012D09D981
:102010002068426822F4805208E0FFE7022004B002
:1020200000F0E8B82068426842F4805242602068BC
:102030000268520603D4026842F040020260E0687F
:102040008842606846D908B1012D3BD1A06B018858
:102050002068C160A06B801CA063E08F401EE087F9
:1020600030E02068816889070FD5E18F69B1B9F147
:10207000010F0AD1A16B0988C160A06B801CA0630D
:10208000E08F401EE0874FF0000920688168C90793
:1020900011D0B4F8461071B1C068216C0880206C72
:1020A000801C2064B4F84600401EA4F8460000E0FE
:1020B0009EE04FF00109FEF763FDC01BB04201D363
:1020C000701C74D1E08F0028CBD1B4F846000028F2
:1020D000C7D175E008B1012D6BD1E08F0128A06B4D
:1020E00008D921680088C860A06B801CA063E08FBD
:1020F000801E07E0216800780873A06B401CA06375
:10210000E08F401EE08754E02068816889071AD577
:10211000E18FC1B1B9F1010F15D1E18F0129A16B97
:1021200007D90988C160A06B801CA063E08F801E66
:1021300006E009780173A06B401CA063E08F401E8D
:10214000E0874FF0000920688168C90728D0B4F8FB
:10215000461029B3B4F84610012914D9C068216C7F
:102160000880206C801C2064B4F84600801EA4F80F
:102170004600B4F84600012810D82068416841F4B0
:10218000805141600AE0007B216C0870206C401C8B
:102190002064B4F84600401EA4F846004FF0010940
:1021A000FEF7EEFCC01BB04202D3701C01D012E05F
:1021B0008EB1E08F0028A7D1B4F846000028A3D143
:1021C0003A463146204601F02DFB50B120202066D2
:1021D00084F85C800CE084F85DA084F85C800320C7
:1021E0001DE784F85DA084F85C80206E0028F7D09D
:1021F000012014E730BCBDE8C09F000070B5044664
:1022000090F85D006568012806D0B5F5827F32D16F
:10221000A5687DBB04282ED151B34AB343B394F8CB
:102220005C00012827D0012084F85C0094F85D5000
:10223000042D02D0052584F85D5000252566A16394
:10224000A387E3872264A4F84430A4F84630E56409
:10225000256521684A6822F4C0424A60E168B1F508
:10226000E06F0AD92068416821F48051416035E06F
:10227000012070BDFFE70220FBE721684A6842F4B5
:1022800080524A60616D4FF48062896991420CD13D
:1022900094F83C10C90721684B6838D043F4804358
:1022A0004B60E18F00EB5101E187A16D896991429B
:1022B00014D121684A6822F480524A60B4F846106A
:1022C000C9072AD021684A6842F400524A60B4F82B
:1022D000461000EB510000BFA4F8460094F85D00E2
:1022E000042823D0A16D2D4808632D48A16DC86234
:1022F000A16D2C484863A06D8563B4F84630216811
:10230000226C0C31A06DFEF7DDFA48BB13E023F41C
:1023100080434B60E18F4908C6E72068416821F49B
:1023200000514160B4F846004008D5E7A16D1E4851
:1023300008631E48DAE72068416841F00101416006
:10234000606D0563606DC562606D4563606D85633A
:10235000E38F2268A16B0C32606DFEF7B3FA30B1E7
:10236000206E40F01000206684F85C5080E7206802
:102370000168490603D4016841F04001016084F816
:102380005C502068416841F020014160206841684C
:1023900041F00201416000206BE70000DF360008D9
:1023A00055370008B3360008D5360008E93600086E
:1023B0007047704710B5401EB0F1807F01D30120F7
:1023C00010BD4FF0E02460610F21601702F015F896
:1023D0000020A06107202061002010BD70477047D9
:1023E0007047000030B590F83C20012A3AD0012215
:1023F00080F83C20CA688B6822F440721A434B680C
:1024000022F480621A430B6822F400621A430B69BB
:1024100022F480521A434B6922F400521A438B6A09
:1024200022F480421A430B8B22F4702242EA0342C8
:102430000D4D03680024AB4202D00C4DAB420CD1D1
:102440008D8C22F4700242EA0552CD6922F080722E
:102450002A43096A22F000720A435A6480F83C4019
:10246000002030BD022030BD002C0140003401406E
:10247000F0B590F83C20012A39D0012480F83C4086
:10248000022280F83D20026853689568194E1A4F61
:10249000B24201D0BA4204D123F4700C4B6843EA33
:1024A0000C0323F0700C0B6843EA0C0353600268C2
:1024B000B24210D0B2F1804F0DD0104B9A420AD0E8
:1024C0000F4B9A4207D00F4B9A4204D0BA4202D027
:1024D0000D4B9A4204D1896825F08003194391601D
:1024E00080F83D40002180F83C100846F0BD0220F5
:1024F000F0BD0000002C0140003401400004004009
:1025000000080040000C00400040014010B50446A7
:10251000022249B104290ED0082913D094F84700AB
:10252000012816D0012010BD94F844000128F9D1EB
:1025300084F844200FE094F845000128F2D184F893
:10254000452008E094F846000128EBD184F84620A5
:1025500001E084F847200422206801F01EFB206877
:10256000416C41F40041416411492068884211D016
:10257000B0F1804F0ED00F4988420BD00E498842EF
:1025800008D00E49884205D00D49884202D00D4935
:10259000884207D181680C4A1140062906D0B1F55E
:1025A000803F03D0016841F001010160002010BDAF
:1025B000002C01400004004000080040000C0040D6
:1025C00000340140004001400700010010B5040044
:1025D00003D094F83D0010B107E0012010BD0020A9
:1025E00084F83C00204600F023F8022084F83D00E7
:1025F000211D206801F05CFA012084F8480084F86D
:102600003E0084F83F0084F8400084F8410084F8DC
:10261000420084F8430084F8440084F8450084F8BC
:10262000460084F8470084F83D00002010BD0000FB
:1026300008B51A4A01681A4891420ED1016E41F458
:1026400000610166006E002200F4006000901146F7
:102650001820FEF7F9FA182010E0124A914211D121
:10266000816D41F004018165806D002200F004005D
:10267000009011461E20FEF7E7FA1E20BDE8084034
:10268000FEF7D4BA084A914207D1016E41F40051D5
:102690000166006E00F40050009008BD002C01405F
:1026A00000100240000800400034014090F83D1046
:1026B000012901D001207047022180F83D100168F6
:1026C000CA6842F00102CA6000681149884211D00C
:1026D000B0F1804F0ED00F4988420BD00E4988428E
:1026E00008D00E49884205D00D49884202D00D49D4
:1026F000884207D181680C4A1140062906D0B1F5FD
:10270000803F03D0016841F0010101600020704763
:10271000002C01400004004000080040000C004074
:1027200000340140004001400700010070B504463C
:1027300090F83C000025012817D0012684F83C6061
:10274000022084F83D00226890682F4B184020F446
:102750007F4090600868502838D00DDC20284FD08A
:1027600005DC90B3102811D14AE0022070BD30285A
:1027700046D040280AD13BE060282FD070280DD0E9
:10278000B0F5805F03D0B0F5005F12D0012584F86A
:102790003D60002084F83C00284670BDCB68D1E93C
:1027A0000121206801F006FA2068816841F0770174
:1027B00009E0CB68D1E90121206801F0FBF920682C
:1027C000816841F480418160E1E719E0CA684968A5
:1027D000206801F089FB5021206806E0CA6849683A
:1027E000206801F092FB6021206801F0EDF9CEE74E
:1027F000CA684968206801F077FB40212068F4E747
:10280000226801461046F0E788FFFEFF2DE9F041FF
:102810000D46040003D094F83D0018B108E00120F3
:10282000BDE8F081002084F83C00204600F042F82A
:10283000022084F83D00206881681D4A11408160B3
:10284000211D206801F034F9226890689169166AA8
:102850002B68AF69034340F20330814341EA07210B
:10286000A868EF6908434FF6FC418843E96840EAED
:102870000720014328692F6A000140EA0730084316
:1028800069686D6926F0AA0646EA05152943936032
:102890002268906154F8480B0162012004F81F0976
:1028A0006075A075E076207720750020B8E70000FD
:1028B000F8BFFEFF30B587B0044614216846FDF727
:1028C000D1FD246800221F4902234FF09040B4F14B
:1028D000804F1DD01C4DAC4218D18C6D44F00204C9
:1028E0008C658C6D04F002040594CC6C44F00104FA
:1028F000CC64C96C01F001010591C0210091CDE9C2
:1029000001326946CDE90323FEF726F807B030BD52
:102910008C6D44F001048C658C6D04F00104059409
:10292000CC6C44F00104CC64C96C01F00101059148
:1029300003210091CDE901320121CDE9032169464E
:10294000E2E70000001002400004004070B590F87B
:102950003E60044690F83F5090F8443090F845208F
:10296000022021B104290ED0012E1BD114E0012E2A
:1029700018D1012B16D184F83E0084F844000122BE
:102980000021206820E0012D0CD1012A0AD184F811
:102990003F0084F8450014E0012D03D1012B01D143
:1029A000012A01D0012070BD84F83E0084F83F0068
:1029B00084F8440084F8450001220021206801F0D9
:1029C000DFF801220421206801F0DAF820680168AC
:1029D00041F001010160002070BD70472DE9F04118
:1029E00004460068C66805694FF00007A90713D5BB
:1029F000B10711D5F91E0161012020772068806997
:102A00008007204602D0FFF7E8FF04E000F0E0F87E
:102A1000204600F0A2F92777680716D5700714D56D
:102A200021686FF004000861022020772068806927
:102A300010F4407F204602D0FFF7CFFF04E000F003
:102A4000C7F8204600F089F92777280715D5300701
:102A500013D521686FF008000861042020772068F2
:102A6000C0698007204602D0FFF7B7FF04E000F0FE
:102A7000AFF8204600F071F92777E80616D5F00682
:102A800014D521686FF010000861082020772068B5
:102A9000C06910F4407F204602D0FFF79EFF04E09B
:102AA00000F096F8204600F058F92777E80708D09C
:102AB000F00706D021686FF001000861204600F0A1
:102AC000CFF9280601D4A80408D5300606D5216818
:102AD0006FF4025008612046FFF781FCE80508D535
:102AE000300606D521686FF4807008612046FFF734
:102AF00075FC680608D5700606D521686FF04000A1
:102B00000861204600F0C0F9A8060AD5B00608D52D
:102B100021686FF0200008612046BDE8F041FFF712
:102B20005FBCBDE8F081000070B586B0044614219A
:102B30006846FDF797FC224B2268002421490225B4
:102B40004FF090409A4211D1CA6C42F00102CA641F
:102B5000C96C01F0010105914FF440710091CDE97C
:102B600001540121CDE90341694624E0164B9A4204
:102B700023D1CA6C42F00102CA64CA6C02F001029D
:102B80000592CA6C42F00402CA64C96C032601F0C3
:102B90000401059120210091CDE90154CDE90346BE
:102BA0006946FDF7D9FE40200090CDE90154CDE9FA
:102BB000034669460548FDF7CFFE06B070BD00002C
:102BC000002C014000100240003401400008004881
:102BD000704770B5044690F83C0000260D46012869
:102BE0000BD0012084F83C000C2A4AD007DC82B1CB
:102BF000042A20D0082A06D131E0022070BD102A14
:102C000053D0142A63D00126002084F83C003046BB
:102C100070BD206800F0E0FF2068816941F0080184
:102C200081612068816921F00401816120688169E6
:102C30002A69114311E0206801F01CF820688169BD
:102C400041F4006181612068816921F480618161C2
:102C5000206881692A6941EA02218161D4E72068FC
:102C600001F050F82068C16941F00801C161206895
:102C7000C16921F00401C1612068C1692A69114359
:102C800011E0206801F086F82068C16941F4006114
:102C9000C1612068C16921F48061C1612068C16996
:102CA0002A6941EA0221C161AEE7206801F0ACF86F
:102CB0002068416D41F0080141652068416D21F0B7
:102CC000040141652068416D2A69114311E02068C3
:102CD00001F0D2F82068416D41F40061416520683F
:102CE000416D21F4806141652068416D2A6941EAA6
:102CF0000221416588E710B5040003D094F83D0037
:102D000010B107E0012010BD002084F83C002046EF
:102D100000F022F8022084F83D00211D206800F018
:102D2000C7FE012084F8480084F83E0084F83F0084
:102D300084F8400084F8410084F8420084F843009D
:102D400084F8440084F8450084F8460084F847007D
:102D500084F83D00002010BD7047704730B5044630
:102D6000022269B1042912D0082917D00C291CD0DD
:102D7000102921D094F84300012824D0012030BD2F
:102D800094F83E000128F9D184F83E201DE094F823
:102D90003F000128F2D184F83F2016E094F840006B
:102DA0000128EBD184F840200FE094F8410001287D
:102DB000E4D184F8412008E094F842000128DDD1F4
:102DC00084F8422001E084F843200122206800F0CA
:102DD000D7FE1A4A20681A4B1A49904209D09842E5
:102DE00007D0884205D0184DA84202D0174DA842FE
:102DF00003D1456C45F400454564206890420FD0EE
:102E0000B0F1804F0CD0124A904209D0114A904242
:102E100006D0114A904203D0984201D0884207D18F
:102E200081680E4A1140062906D0B1F5803F03D0D3
:102E3000016841F001010160002030BD002C01401B
:102E4000003401400040014000440140004801407E
:102E50000004004000080040000C00400700010092
:102E60000068064B0121064A984201D11170704753
:102E7000044B9842FBD1517070470000000800409D
:102E800000000020000C0040704710B5040002D084
:102E9000E06F10B107E0012010BD002084F8780039
:102EA000204600F025F82420E0672068016821F022
:102EB00001010160606A10B1204601F038F8204637
:102EC00001F014F90128E7D02068416821F490410D
:102ED00041602068816821F02A01816020680168D2
:102EE00041F0010101602046BDE8104001F083B8C7
:102EF00030B5A9B00446142122A8FDF7B3FA882101
:102F00006846FDF7AFFA16492068884226D10025A9
:102F100002240F9568460094FDF704FF08B1FDF701
:102F2000EBFB1048816D41F400318165816D01F446
:102F300000312791C16C41F00101C164C06C22A92C
:102F400000F0010027900C2081E83100032025903B
:102F5000072026904FF09040FDF7FEFC29B030BDD1
:102F60000044004000100240FEE700002DE9F0435D
:102F700087B014216846FDF775FA3148C16C41F0FD
:102F80000401C164C16C01F004010591C16C41F000
:102F90000101C164C16C01F001010591C16C41F0F6
:102FA0000201C164C06C274F00F0020040F20234FD
:102FB0000590002221463846FDF7DDFDDFF88880C8
:102FC000002207214046FDF7D6FD4FF480664FF002
:102FD0009049002231464846FDF7CDFD0125CDE957
:102FE000004500240294694638460394FDF7B4FC7A
:102FF00007200090CDE90154694640460394FDF74F
:10300000ABFCA80300900220CDE901040E20CDE91D
:10301000034069464046FDF79FFC0096CDE9015408
:10302000694648460394FDF797FC4FF4C0508DE87D
:10303000310069464846FDF78FFC07B0BDE8F083D4
:10304000001002400008004800040048114810B574
:103050000F4901604FF48271416000214FF4E0623A
:10306000C0E902120222026101224261520282611F
:103070001822C0E9072107224162C0E90A12016350
:103080004163FEF74BFC002801D072B6FEE710BD8D
:10309000003800402C01002010B59AB0002417948D
:1030A000189415941694129413941C210BA814943C
:1030B000FDF7D8F92C216846FDF7D4F92F482E49A1
:1030C00001604F21C0E9011440F2E731C0E9031467
:1030D00044618461FFF77AFA08B172B6FEE74FF4F3
:1030E0008050159015A92548FFF720FB08B172B64E
:1030F000FEE72248FFF7FFFD08B172B6FEE7129423
:10310000139412A91D481494FFF7B2F908B172B6CE
:10311000FEE76020CDE90B040D940E940F941094FB
:1031200000220BA915481194FFF753FD08B172B6A0
:10313000FEE704220BA91148FFF74BFD08B172B658
:10314000FEE700944FF40050CDE90440019402944E
:10315000039400030694CDE90740099469460748A3
:103160000A94FFF73FF908B172B6FEE70348FFF78C
:10317000DBFC1AB010BD0000002C014090010020C3
:1031800010B58CB024216846FDF76CF90024164870
:1031900009940A944FF080410B94C0E90014611E19
:1031A000C0E90241046184610120CDE90004CDE958
:1031B00002040494CDE90540079469460A4808943E
:1031C000FFF724FB08B172B6FEE7099409A9064887
:1031D0000B94FFF74DF908B172B6FEE73C210248A7
:1031E000FFF7B4FB0CB010BDDC01002010B58CB0B3
:1031F00024216846FDF736F90024174809940A94FB
:1032000014490B94C0E900144FF6FF71C0E9024164
:10321000046184610120CDE90004CDE90204049435
:10322000CDE90540079469460B480894FFF7EEFA8C
:1032300008B172B6FEE7099409A907480B94FFF795
:1032400017F908B172B6FEE73C210348FFF77EFB91
:103250000CB010BD000400402802002010B588B05A
:103260000024184800940194029403940494059453
:103270001349069401604F21C0E9011440F2CF7157
:10328000C0E903148461FFF7A1F908B172B6FEE743
:103290004FF48050009069460A48FFF747FA08B19A
:1032A00072B6FEE7049404A906480694FFF7E0F816
:1032B00008B172B6FEE70348FFF7F8F908B010BD91
:1032C000000800407402002010B59AB00024179442
:1032D000189415941694129413941C210BA814940A
:1032E000FDF7C0F82C216846FDF7BCF82C482B49A7
:1032F00001604F21C0E9011440F27111C0E90314CB
:1033000044618461FFF762F908B172B6FEE74FF4D9
:103310008050159015A92248FFF708FA08B172B637
:10332000FEE71F48FFF7E7FC08B172B6FEE712940C
:10333000139412A91A481494FFF79AF808B172B6B8
:10334000FEE760200B90B920CDE90C040E940F9499
:10335000109400220BA912481194FFF73AFC08B10F
:1033600072B6FEE700944FF40050CDE9044001949A
:103370000294039400030694CDE90740C012CDE9FE
:10338000094069460648FFF72DF808B172B6FEE716
:103390000348FFF7C9FB1AB010BD0000003401401C
:1033A000C00200200C4810B50A4901604FF4E13119
:1033B0004160002181600C22C160C0E9041281617A
:1033C000C16101624162FFF760FD002801D072B661
:1033D000FEE710BD004400400C030020FEE7FEE7BE
:1033E000704700002DE9F041444C05468846E068EE
:1033F0000026810728680DD0E16801F003018142B1
:1034000016D1A8B1E0686968C0F30210401C884278
:103410000ED120E0012804D0022805D0032807D1CE
:1034200008E02168890701E021684905002907DBD8
:1034300001265FE02168890302D421684903F5E78A
:10344000E1686A686FF00F0321F0730103EB021269
:1034500011430143E160206820F080602060FDF7A7
:103460008FFB074605E000BFFDF78AFBC01B022863
:1034700037D820680001F7D4B8F1000F18D0B8F1A0
:10348000010F1ED0287D4FF07E41400801EB4060C7
:10349000A96840EA01202169194A114008432061C6
:1034A000206840F080602060FDF76AFB07461AE064
:1034B000A868E9680002090940EA41402169114A07
:1034C000EBE7288A1049400801EB4050A96840EA20
:1034D000012021690D4AE0E7FDF752FBC01B0228DD
:1034E00001D9032606E020680001F5D52069A96905
:1034F000084320613046BDE8F08100000010024022
:10350000FF80FFF9FF80FDFF0000E0FFFF809FFFCD
:103510002DE9F0413D4C06468846E06800258107CC
:1035200030680DD0E16801F00301814216D1A8B1E5
:10353000E0687168C0F30210401C88420ED120E0A0
:10354000012804D0022805D0032807D108E021680B
:10355000890701E021684905002907DB012551E0C1
:103560002168890302D421684903F5E7E16872689C
:103570006FF00F0321F0730103EB021211430143BB
:10358000E160206820F080502060FDF7F9FA0746DE
:1035900005E000BFFDF7F4FAC01B022829D8206817
:1035A0008000F7D4B8F1000F15D0307C4FF07E4189
:1035B000400801EB4060B16840EA01206169144AAB
:1035C000114008436061206840F080502060FDF7A2
:1035D000D7FA07460FE0B068F1680002090940EA2F
:1035E000414061690B4AEBE7FDF7CAFAC01B0228AC
:1035F00001D9032506E020688000F5D5606971696E
:10360000084360612846BDE8F081000000100240D8
:10361000FF80FFF9FF80FDFFF8B51C4D0646002432
:10362000A86DC00002D5FDF775FB0DE0A86D40F058
:103630008050A865A86D00F080500090FDF76AFBEF
:10364000A96D21F08051A965B0F5007F04D0802ECE
:1036500007D94FF003040AE0802E08D9A02E01D824
:1036600004E001D1022402E0702E00D101240848B8
:10367000016821F0070121430160006800F00700A4
:10368000A04201D00120F8BD0020F8BD001002408A
:10369000002002400148FEF7C3B800002C010020C2
:1036A00010B5806A0021A0F84610C187FEF7B6F871
:1036B00010BD10B5806A01684A6822F003024A60B2
:1036C000016E41F010010166012180F85D10FEF7E6
:1036D000A5F810BD10B5806AFEF788FB10BD10B5C7
:1036E000806AFEF766FE10BD70B50546846AFDF778
:1036F00047FA024628680068800627D42068416897
:1037000021F020014160A06818B96068B0F5827F9F
:1037100017D02068416821F00101416064212046F2
:1037200000F046F808B1202020660020A4F84600EA
:10373000012084F85D00206E40B12046FEF76EF84F
:1037400070BD2068416821F00301E6E72046FEF7DE
:1037500045FB70BD70B50546846AFDF711FA024657
:103760002868006880061FD42068416821F0200185
:1037700041606421204600F055F818B1206E40F0F9
:10378000200020662068416821F00301416000208C
:10379000E087A4F84600012084F85D00206E18B18F
:1037A0002046FEF73BF870BD2046FEF701FE70BDD7
:1037B0002DE9F843044640684FF482761546894661
:1037C0004FF400474FF48068B04209D1A068B84276
:1037D00001D0404504D12068016821F0400101601A
:1037E0004B46002280212046009500F0B3F880B9B6
:1037F0006068B04214D1A068B84201D040450FD1F2
:103800004B4600224FF4C0612046009500F02EF890
:1038100030B1206E40F0200020660320BDE8F88320
:103820000020FBE7F8B515460E460B46009204460D
:1038300000224FF4C05100F019F888B93346002235
:1038400080212046009500F085F848B933460022D3
:103850004FF4C0612046009500F008F8002804D01D
:10386000206E40F0200020660320F8BD2DE9FE4FB9
:103870004FF0000A984617460E4604460C9D8DF8F8
:1038800004A0FDF77DF9411BA8EB0105FDF778F9D0
:10389000814620684FF4C06B0C3002902A480068C3
:1038A000C0EBC00000EB8000000D6843009043E0D7
:1038B0005E4506D12FB9029800788DF804009DF876
:1038C0000400B8F1FF3F37D0FDF75AF9A0EB09002B
:1038D000A84203D215B1009858B32BE02068416884
:1038E00021F0E00141606068B0F5827F0BD1A068F3
:1038F000B0F5004F02D0B0F5806F04D120680168A8
:1039000021F040010160A06AB0F5005F09D1206894
:10391000016821F4005101602068016841F4005100
:103920000160012084F85D0084F85CA0032000F0B1
:103930000DB80025401E0090206880683040B842D5
:10394000B6D10020F3E70000240100201EBCBDE832
:10395000E08F00002DE9F8431E4691468846044654
:10396000089DFDF70DF9401B351AFDF709F90746CB
:1039700025480068C0F3CB30684338E0701C37D06E
:10398000FDF7FEF8C01BA84203D215B1009860B342
:103990002CE02068416821F0E00141606068B0F5EA
:1039A000827F0BD1A068B0F5004F02D0B0F5806FD8
:1039B00004D12068016821F040010160A06AB0F5DF
:1039C000005F09D12068016821F40051016020687E
:1039D000016841F400510160012084F85D0000207D
:1039E00084F85C000320BDE8F8830025401E0090A9
:1039F0002068816838EA010004D000214945BDD122
:103A00000020F0E70121F9E7240100207047FDF7CD
:103A1000BDB810B596B044216846FCF723FD1421CB
:103A200011A8FCF71FFD4FF40070FDF73FF908B136
:103A300072B6FEE71020009001200024602106905D
:103A4000CDE907410221CDE90A100C9028200D9004
:103A50000720CDE90E0168461091FDF753FC08B12F
:103A600072B6FEE70F2011900320CDE912041494E2
:103A7000042111A81594FDF72DFB002801D072B682
:103A8000FEE716B010BD00000248016841F4700165
:103A90000160704788ED00E00148FEF79FBF00001D
:103AA000900100200148FEF799BF00007402002039
:103AB0002DE9F04702682A4B2A4D2B4E2B4F2C4CF8
:103AC0004FF0804A984209D0504507D0A84205D00F
:103AD000B04203D0B84201D0A04204D122F0700C11
:103AE0004A6842EA0C02DFF88CC0DFF88C80DFF80D
:103AF0008C9098420FD050450DD0A8420BD0B042C8
:103B000009D0B84207D0A04205D0604503D0404557
:103B100001D0484503D122F44075CA682A434D6953
:103B200022F080022A4302608A68C2620A688262C6
:103B3000984207D0A04205D0604503D0404501D04F
:103B4000484501D109690163012141610169C90742
:103B500003D0016921F001010161BDE8F087000097
:103B6000002C01400004004000080040000C004010
:103B70000034014000400140004401400048014041
:103B800010B501F01F030121046A99408C430462BF
:103B9000016A9A401143016210BD10B501F00F0394
:103BA0000421046A99408C430462016A9A401143DB
:103BB000016210BD10B5846842EA032224F47F44F8
:103BC0000A432243826010BD826822F070020A43D9
:103BD00042F00701816070472DE9F043056A026AEF
:103BE00022F001020262436882691C4C25F0020542
:103BF00022400C6822F0030214438A68194E2A43BB
:103C0000174D194FDFF864C0DFF86490A84207D061
:103C1000B04205D0B84203D0604501D0484506D136
:103C200022F00808CA6842EA080222F00402A84208
:103C300007D0B04205D0B84203D0604501D0484516
:103C400005D14D6923F440731D438B692B434360B9
:103C50008461496841630262BDE8F0838FFFFEFF23
:103C6000002C01400034014000400140004401406C
:103C700000480140F0B5056A026A22F010020262B3
:103C800042688369194C1B4E23400C6823F440732F
:103C900043EA042425F020038D6843EA0513144DFC
:103CA000A84201D0B04206D1CF6823F0800343EA96
:103CB000071323F04003A8420AD0B04208D00E4DAB
:103CC000A84205D00D4DA84202D00D4DA84207D103
:103CD0004D6922F4406242EA85028D6942EA85021A
:103CE00042608461496881630362F0BDFF8FFFFE1B
:103CF000002C0140003401400040014000440140DC
:103D000000480140F0B5056A026A22F4807202623E
:103D10004368C269194C1B4E22400C6822F0030212
:103D2000144325F400728D6842EA0522144DA8421E
:103D300001D0B04206D1CF6822F4006242EA0722E5
:103D400022F48062A8420AD0B04208D00E4DA842A8
:103D500005D00E4DA84202D00D4DA84207D14D69A5
:103D600023F4405343EA05138D6943EA0513436086
:103D7000C4614968C1630262F0BD00008FFFFEFFAD
:103D8000002C01400034014000400140004401404B
:103D90000048014030B5046A026A22F4805202628F
:103DA0004268C369124D24F400542B400D6823F47B
:103DB000407343EA05238D6844EA05340D4DA8425B
:103DC0000BD00D4DA84208D00C4DA84205D00C4D8B
:103DD000A84202D00B4DA84204D14D6922F4804282
:103DE00042EA85124260C36149680164046230BDE1
:103DF000FF8FFFFE002C01400034014000400140D5
:103E0000004401400048014030B5056A026A22F4CE
:103E1000803202624268436D114C23400C681C439F
:103E200025F400330D8943EA05430E4DA8420BD01B
:103E30000D4DA84208D00D4DA84205D00C4DA8420A
:103E400002D00C4DA84204D14D6922F4803242EADE
:103E500005224260446549688165036230BD000007
:103E60008FFFFEFF002C0140003401400040014064
:103E7000004401400048014030B5046A026A22F45F
:103E8000801202624268436D114D24F400142B40ED
:103E90000D6843EA05230D8944EA05540D4DA842F7
:103EA0000BD00D4DA84208D00C4DA84205D00C4DAA
:103EB000A84202D00B4DA84204D14D6922F48022C1
:103EC00042EA8522426043654968C165046230BDAB
:103ED000FF8FFFFE002C01400034014000400140F4
:103EE000004401400048014010B5036A046A24F010
:103EF00001040462846924F0F00444EA021423F00B
:103F00000A020A438461026210BD10B5036A046AA2
:103F100024F010040462846923F0A00324F47044A4
:103F200044EA023243EA01118261016210BD90F855
:103F30002410090706D501684A68436B22F4004241
:103F40001A434A6090F82410C90706D001684A68ED
:103F5000836A22F400321A434A6090F824108907D9
:103F600006D501684A68C36A22F480321A434A605F
:103F700090F82410490706D501684A68036B22F4BB
:103F800080221A434A6090F82410C90606D50168B9
:103F90008A68836B22F480521A438A6090F8241056
:103FA000890606D501688A68C36B22F400521A4359
:103FB0008A6090F82410490611D501684A68036C9C
:103FC00022F480121A434A60016CB1F5801F06D1B9
:103FD00001684A68436C22F4C0021A434A6090F8B0
:103FE0002410090606D501684A68806C22F4002274
:103FF00002434A6070472DE9F84300260446C0F8A2
:104000008460FCF7BDFD8046206800684FF0200505
:1040100000076FF07E4712D5434600222904204650
:10402000009700F087F950B1216851E8000F20F0A7
:10403000800041E80002002AF6D1E56721E020680F
:104040000068400722D5434600224FF480012046F5
:10405000009700F06FF9C8B1216851E8000F20F413
:10406000907041E80002002AF6D12068083050E83C
:10407000001F21F0010140E80012002AF5D1C4F828
:10408000805084F878600320BDE8F883E567C4F8C1
:10409000805044F8606F666026760020F4E701687F
:1040A00051E8002F22F4907241E80023002BF6D152
:1040B0000168083151E8002F22F0010241E8002395
:1040C000002BF5D1016E012908D1026852E8001FCA
:1040D00021F0100142E80013002BF6D12021C0F896
:1040E0008010002101668166704700002DE9F041D3
:1040F0000446016880682269E3691043626900250B
:104100001A431043814F0A68814B1A4002430A60E8
:1041100020684168E26821F4405111434160216800
:10412000A069B94201D0226A10438A6822F4306241
:1041300002438A607749226877488A420DD1D0F8D5
:10414000880010F0030006D0012866D0022854D061
:10415000032851D163E001204FE070498A420BD11E
:10416000D0F8880010F00C0047D0042845D008286B
:1041700051D00C2840D152E069498A420BD1D0F885
:10418000880010F0300038D0102846D0202842D0C7
:10419000302831D143E063498A420BD1D0F88800FE
:1041A00010F0C00029D0402837D0802833D0C02854
:1041B00022D134E05C498A420ED1D0F8880010F454
:1041C00040701AD0B0F5807F27D0B0F5007F22D0A4
:1041D000B0F5407F10D122E0BA420DD1D0F888006E
:1041E00010F4406009D0B0F5806F16D0B0F5006FC4
:1041F00011D0B0F5406F12D010204C4900264FF47A
:104200000043BA422ED160B102280DD004280DD04F
:1042100008286FD10EE00220EFE70420EDE7082028
:10422000EBE7FCF7F9FF03E00B4603E0FDF718F8B6
:10423000030060D0626802EB420098425AD8B3EBA8
:10424000023F57D8190E1B0250081818714100235D
:10425000FCF71AF8364AA0F5407191424AD8216815
:10426000C86048E0E2694FF6EF779A4227D1092803
:1042700040D2DFE800F005080D3F213F3F3F0E0030
:10428000FCF7CAFF01E0FCF7D9FF030001D132E0DF
:104290000B466068590001EB5001B1FBF0F0A0F152
:1042A0001001B94226D84FF6F0710140C0F3420028
:1042B00001432068C1601EE0FCF7D2FFE5E7092852
:1042C00018D2DFE800F005080D171D1717170E00AC
:1042D000FCF7A2FF01E0FCF7B1FF030001D10AE007
:1042E0000B46606803EB5001B1FBF0F0A0F1100148
:1042F000B94208D90125A6662846E666BDE8F081E0
:10430000FCF7AEFFE9E780B2A9E7000000800040BB
:10431000F369FFEF00380140001002400044004004
:1043200000480040004C0040005000400024F400D1
:10433000FFFC0F002DE9F047994617460D4604464D
:104340004FF00008089E33E0701C31D0FCF718FCD9
:10435000A0EB0900B04218D8BEB120680168490737
:1043600026D5802D24D0402D22D0C169C94309070C
:104370000DD4082505622046FFF791FEC4F884504D
:1043800084F878800120BDE8F0870320FBE7C0694E
:10439000C04300050CD421684FF400600862204639
:1043A000FFF77DFE2020C4F8840084F87880ECE7D5
:1043B0002068C06935EA000004D00020B842C3D0AC
:1043C0000020E0E70120F9E7FEE703B4019841008F
:1043D000009850EAC12018BF04204A0D18BF40F0D1
:1043E000010040F2FF72B2EB515F08BF40F00200E3
:1043F000012808BF052002B070470907090E0028F0
:1044000004DB00F1E02080F80014704700F00F009A
:1044100000F1E02080F8141D70470000000000004B
:1044200070B59B482DED020B2DED068B079D25F0F9
:104430000044A04218DC9748844202DC0AD1069866
:1044400040B19DED060BBDEC068B02B0BDE870409F
:1044500001F01EB9002DCCBF9FED8F0B9FED900B8F
:10446000BDEC068B02B070BD8F48A04215DD8F48B1
:10447000A042D8BF4FF0FF3458DD9DED060B51EC44
:10448000100BFFF7A2FF042808BF01F035F99DEDDE
:10449000060BBDEC068B02B070BD9DED060B51EC1A
:1044A000100B01F0DAFACDE9060181489FED828B0D
:1044B000A0423CDD8248A0421FDD00249FED82AB7C
:1044C0009DED060B53EC1A2B51EC100B02F028F863
:1044D0009DED060B41EC190B53EC1A2B51EC100B14
:1044E00002F086FA53EC182B02F08EFC53EC192BD9
:1044F00002F0D2F8CDE9060149E09DED060B01245A
:1045000053EC182B51EC100B02F00AF89DED060B42
:1045100041EC190B53EC182B51EC100B02F074FC0E
:1045200053EC192B02F0B8F8CDE906012FE06848EA
:10453000A0421FDD02249FED689B9DED060B53EC0E
:10454000192B51EC100B02F053FA53EC182B01F01D
:10455000E7FF9DED060B41EC180B53EC192B51ECCA
:10456000100B02F051FC53EC182B02F095F8CDE93A
:1045700006010CE09DED060B032453EC102B9FED80
:10458000580B51EC100B02F087F8CDE906019DEDB8
:10459000060B53EC102B51EC100B02F029FA41ECF6
:1045A000180B53EC182B02F023FA41EC190B4E4870
:1045B0000621B0EE490AF0EE690A784400F0D4FF13
:1045C00053EC182B51EC100B02F012FA41EC180BC3
:1045D0004648B0EE490AF0EE690A0521784400F039
:1045E000C3FF53EC192B51EC100B02F001FA41EC14
:1045F000100B51EC180B53EC102B002C0EDA01F0C1
:104600008FFF9DED061B53EC112B02F0F1F99DED90
:10461000061B53EC112B02F01FFB35E001F080FF6D
:104620009DED061B53EC112B02F0E2F941EC100B4F
:104630002F48784400EBC40090ED001B51EC100BA8
:1046400053EC112B02F0E0FB9DED061B53EC112BFC
:1046500002F0DAFB41EC100B2648784400EBC40072
:1046600090ED001B51EC100B53EC112B02F0F4FAFF
:1046700041EC100B002DA2BFBDEC068B02B070BD4B
:1046800051EC100B01F00EFF41EC100B01E70000A4
:10469000000010440000F07F182D4454FB21F93F26
:1046A000182D4454FB21F9BF0000DC3F0000203EE0
:1046B0000000F33F00000000000000000000F03F99
:1046C0000000E63F00000000000000000000004085
:1046D0000080034000000000000000000000F83FE0
:1046E000000000000000F0BFD22D0000882D000067
:1046F000122D0000CA2C000070B56B4E2DED040B7E
:104700002DED028B82B0DDF81CC0DDE905235C4293
:104710002CF000411C4341EAD474049D22F0004077
:10472000B44205D86C422C4340EAD474B4420BD94D
:104730009DED061B9DED040B02B0BDEC028B04B099
:10474000BDE8704000F0AEBFACF14054A4F17F640E
:104750001C430BD0022404EAAC7444EAD27405432F
:104760009FED538B9FED542B07D015E09DED040B6F
:1047700051EC100B01F015F942E0002C11BF012C97
:104780009DED040B02B0BDEC028B04BF04B070BD04
:10479000022C38D0032C3BD00B439FED491B9FEDDF
:1047A0004A0B0AD0B14218D1B04209D121F0804160
:1047B00020F08040079105900FE0002A15DA10E004
:1047C000434B7B44002C08BF93ED000B0DD0012C14
:1047D00010D0022C17D0032C1AD0B0421DD1002AC1
:1047E00003DAB0EE410AF0EE610A02B0BDEC028BD2
:1047F00004B070BD93ED000B51EC100B01F052FEB4
:1048000041EC100BF1E7B0EE480AF0EE680AECE775
:10481000B0EE420AF0EE620AE7E7401A00153C28C3
:10482000C8BF8DED000B19DCBCF1000FBEBF10F14D
:104830003C0F9FED290B8DED000B0FDB9DED060B63
:1048400053EC102B9DED040B51EC100B01F024FFE9
:1048500001F003F901F0A5F8CDE90001002C08BF33
:104860009DED000BC1D0012C10D0022C9FED1C0B34
:1048700053EC102B9DED000B51EC100B0DD002F002
:10488000C3FA53EC182B02F0BFFAB9E7019880F095
:10489000004001909DED000BA7E702F0B5FA53EC44
:1048A000182B02F0D9F9ABE70000F07F0000000000
:1048B000182D4454FB210940182D4454FB2109C0F4
:1048C000182D4454FB21F9BF182D4454FB21F93F06
:1048D000FA2B0000000000000000000000000000B3
:1048E000075C143326A6A13C2DE9F04D2DED040BF9
:1048F0002DED0E8B96B0DDE92550279CDDF890A0BC
:1049000025F0004624F00048BAF1000F14BF012141
:10491000002101EB4502FC4953184A1093422AD367
:10492000002814BF0123002303EB44030B44F74981
:104930008B4220D358EA00019FEDF59B76D0DFF83B
:10494000D8B35D4503D1BAF1000F05D188E0BAF1C3
:10495000000F08BF002100D0012101EB450111F536
:10496000001F08D8002814BF0121002101EB4401D9
:1049700011F5001F0BD99DED261B9DED240B16B0E4
:1049800000F0DABD04B0BDE8F04D00F08BBE0027AA
:10499000002DBCBFE149884521DAE1498845A8BF1F
:1049A00002271CDAC3451ADCDE4901EB2851142921
:1049B00008DDC1F1340220FA02F101FA02F282426A
:1049C0000DD108E058B9C1F1140228FA02F101FA38
:1049D00002F2424503D101F00101C1F1020756EA9A
:1049E0000A0124D1002C22DA002D18BF022F01D099
:1049F000012F0AD00220FBF764FD16B000F0A2BD23
:104A000004B0BDE8F04D00F02BBE0220FBF759FDCD
:104A100000F026FE51EC100B01F044FD41EC100BB0
:104A200016B000F095BD04B0BDE8F08D18E09FED24
:104A3000BEAB9FEDBF8B002871D1B848804522D115
:104A400005F1804010F5801008BFBAF1000F07D0C3
:104A5000B3450ADC002CA8BF9DED260BE0DA0DE083
:104A6000B0EE490AF0EE690ADAE7002C06DA9DEDAD
:104A7000260B51EC100B01F015FD6FE0AE487844A9
:104A800090ED000BCCE7D8454DD1002C48DA2EB183
:104A900086423AD1BAF1000F42D126E0BAF1000FB6
:104AA00013D00220FBF70DFD00F016FE8DED020B7A
:104AB0009DED240B8DED000B10EE900A039961F330
:104AC0001E0003909DED020BAAE78DED02AB9DED5C
:104AD000240B1AEE901A10EE900A8DED000B61F384
:104AE0001E0003909DED020B9AE78DED028B9DED6C
:104AF000240B18EE901A10EE900A8DED000B61F366
:104B00001E0003909DED020B8AE709DA9DED240B50
:104B100051EC190B53EC102B01F0BEFD1EE020E010
:104B20009DED240B7CE786421BDAB4F1804F0DD05B
:104B3000A4F10050B0F1FF5013D1002D11DB9DED19
:104B4000240B51EC100B01F0CBFB07E09DED240B87
:104B500053EC102B51EC100B00F0C2BC41EC100BCD
:104B60005EE79DED240B51EC100B00F076FFBAF1DF
:104B7000000FCDE90E0142D19FED710B46B3A6F1B6
:104B8000E040B0F17F600CD05E4538D1002D00DAF6
:104B9000A7B3022F0CBF01204FF0FF3001F0D4FE6D
:104BA000DCE7002D01DD002C0DDA002D01DD002CED
:104BB0001FDB002D16DA002C14DB012F08BF9FED40
:104BC000620B3FF42DAFB0EE4A0AF0EE6A0A27E717
:104BD000022F18BF002D0CD0012F0AD1002DFFF697
:104BE0001FAF06E0002DB8BF002C08DA012F3FF4FC
:104BF00017AFB0EE480AF0EE680A11E71BE001209B
:104C000000EBE57050EA070115D0791EB0EE498A35
:104C1000F0EE698A084308BF9FED4D8B4E48002592
:104C2000804570DD4D494E48884514DDB0420DDBAE
:104C3000002C19DB2FE00120FBF743FC16B000F03D
:104C40008DBC04B0BDE8F04D00F036BDB34502DCCC
:104C5000002C09DC1FE0864202DA002C1BDA03E09C
:104C60005E452BDD002C16DD0220FBF72AFC00F050
:104C700033FD8DED020B53EC1A2B51EC180B01F0A8
:104C8000B7FECDE900010399019861F31E0003907E
:104C90009DED020BC4E60220FBF713FC00F02CFD97
:104CA00010EE901A18EE900A8DED020B8DED008B30
:104CB00061F31E0003909DED020BB1E69DED0E0B1E
:104CC00053EC192B51EC100B02F09EF89FED260BC4
:104CD000CDE9080153EC102B9DED080B51EC100BA6
:104CE00001F086FE9FED221B53EC112B01F0B4FF67
:104CF0009DED081B53EC112B01F07AFE9FED1E1B5E
:104D000053EC112B3CE08CE0FFFF1F00FFFF0F0076
:104D1000000000000000F03F0000F03F0000F07FC6
:104D20000000404301FCFFFF000000000000F07F96
:104D300000000000000000003E290000000000000C
:104D40000000000000000080000000000000F0FFF4
:104D5000000000000000F0BF0000E0410000F04350
:104D6000FFFFEF3F00000000000000000000D03F08
:104D7000555555555555D53F000000000000E03F02
:104D800001F06AFF9DED080B41EC1A0B53EC102B60
:104D900051EC100B01F02CFE53EC1A2B01F028FE05
:104DA00041EC1A0B9FEDFE0B53EC102B9DED080B05
:104DB00051EC100B01F01CFE41EC1B0B9FEDFA0BAC
:104DC00051EC1A0B53EC102B01F012FE41EC1A0BB4
:104DD0009FEDF70B53EC102B9DED080B51EC100BD6
:104DE00001F006FE53EC1A2B02F00EF841EC1A0B00
:104DF00051EC1B0B53EC1A2B01F092FB0690CDE902
:104E000006519DED060B53EC1B2B51EC100B01F0E2
:104E1000FBFF53EC1A2B01F01FFF41EC100B00F0CD
:104E2000A1B90020B6F5801F0EDA9FEDE30B53EC1D
:104E3000102B9DED0E0B51EC100B01F0D9FDCDE9BF
:104E40000E016FF034000E4600EB2650A0F2FF3743
:104E5000C6F31300DA4940F07F6646F040568842B8
:104E6000D8BF002408DDD7498142C8BF012403DC34
:104E70000024A6F580167F1CD348784400EBC400BC
:104E80000F9690ED00CB9DED0E0B53EC1C2B51ECCF
:104E9000100B01F0B9FF9DED0E0B41EC1B0B53EC19
:104EA0001C2B51EC100B01F03BFB41EC100B51ECB7
:104EB000190B53EC102B01F0EFFB41EC1D0B51ECE7
:104EC0001B0B53EC1D2B01F093FD41EC1A0BBF485B
:104ED0008DED10AB7844109590ED000B4FF0005025
:104EE00040EA660000EB84408DED080B00F50020E1
:104EF00009909DED080B53EC1C2B51EC100B01F0AD
:104F000083FF9DED0E1B53EC112B01F0A5FE41EC30
:104F1000100B53EC102B9DED100B51EC100B01F00E
:104F200067FD9DED080B41EC1C0B53EC102B9DED28
:104F3000100B51EC100B01F05BFD53EC1B2B01F03F
:104F40008BFE53EC1C2B01F05FFF53EC1D2B01F08B
:104F50004FFD41EC1C0B53EC1A2B51EC1A0B01F0DA
:104F600047FD41EC1B0B9A480621B0EE4B0AF0EED0
:104F70006B0A784400F0F8FAB0EE401AF0EE601ACE
:104F8000B0EE41DAF0EE61DA53EC1B2B51EC1B0B67
:104F900001F02EFD53EC1D2B01F02AFD9DED100BB1
:104FA00041EC1B0B53EC1A2B51EC100B01F0B8FA2F
:104FB00053EC1C2B01F01CFD53EC1B2B01F0B0FA41
:104FC0009DED100B41EC1B0B53EC102B51EC100B17
:104FD00001F00EFD41EC1D0B9FED7FEB53EC1E2B02
:104FE00001F09EFA53EC1B2B01F09AFA0890CDE9E0
:104FF00008519DED080B53EC1E2B51EC100B01F0EA
:1050000003FF53EC1D2B01F0FFFE53EC1B2B01F0B3
:1050100023FE9DED080B41EC1D0B53EC102B9DED79
:10502000100B51EC100B01F0E3FC41EC1B0B53ECAB
:105030001A2B51EC1D0B01F0DBFC9DED080B41EC34
:105040001A0B53EC102B51EC1C0B01F0D1FC53EC60
:105050001A2B01F065FA41EC1A0B51EC1B0B53ECC7
:105060001A2B01F05DFA0C90CDE90C519DED0C0B63
:1050700053EC1B2B51EC100B01F0C6FE53EC1A2B1A
:1050800001F0EAFD41EC1B0B9FED550B53EC102B8F
:105090009DED0C0B51EC100B01F0AAFC41EC1A0B2E
:1050A0009FED510B51EC1B0B53EC102B01F0A0FCAE
:1050B00041EC1B0B9FED4E0B53EC102B9DED0C0B9D
:1050C00051EC100B01F094FC53EC1B2B01F028FA6F
:1050D00041EC100B4848784400EBC40090ED001BF5
:1050E00051EC100B53EC112B01F01AFA41EC1B0B95
:1050F000384601F029FCCDE9080153EC1B2B51EC9B
:105100001A0B01F00DFA41EC100B3C48784400EB0F
:10511000C40090ED00CB51EC100B53EC1C2B01F0B4
:10512000FFF99DED081B53EC112B01F0F9F90690E6
:10513000CDE906519DED080B53EC102B9DED060BB0
:1051400051EC100B01F060FE53EC1C2B01F05CFEE7
:1051500053EC1A2B01F058FE53EC1B2B01F07CFD95
:1051600041EC100B9DED261B53EC102B8DED001B1D
:1051700000959DED260B51EC100B01F039FC9DEDD7
:10518000000B41EC1A0B53EC102B9DED260B51EC50
:10519000100B01F039FE9DED061B53EC112B2FE097
:1051A000000000604715F73FFE822B654715F73F6B
:1051B00044DF5DF80BAE543E0000000000004043A9
:1051C0008E9803007AB60B0022240000E824000029
:1051D0005A2300000000000000000000000008400A
:1051E000000000E009C7EE3FFD033ADC09C7EE3FCF
:1051F000F5015B14E02F3EBEE6210000A021000077
:1052000001F0F6FB53EC1A2B01F08AF99DED060B29
:1052100041EC1A0B53EC102B9DED000B51EC100BD5
:1052200001F0E6FBCDE90C019DED0C0B51EC1A0BE6
:1052300053EC102B01F074F9CDE902010C46AA4998
:105240008C422FDB611A084318D19DED0C0B53ECF7
:10525000102B9DED020B51EC100B01F0D5FD41EC34
:105260001B0B9FEDA30B51EC1A0B53EC102B01F011
:1052700057F953EC1B2B01F0B9FC2DD20220FBF7A0
:1052800020F900F029FA10EE901A18EE900A8DED30
:10529000020B8DED008B61F31E0003909DED020B60
:1052A000FFF7BEBB944A24F00041914214D39349C6
:1052B000214408437FF4EFAC9DED0C0B53EC102B15
:1052C0009DED020B51EC100B01F09EFD53EC1A2BDF
:1052D00001F08CFC7FF6DFAC24F000408849894A5D
:1052E000002601EB205182422BDA481C4FF480113A
:1052F00021FA00F02044844AC0F30A517A44A1F212
:10530000FF3192ED000B814A8DED080BCA4020EA77
:105310000202C0F3130040F48010C1F1140120FA1E
:1053200001F60992002CB8BF76429DED080B53ECB4
:10533000102B9DED0C0B51EC100B01F065FDCDE930
:105340000C019DED0C0B51EC1A0B53EC102B01F0E2
:10535000E7F89FED6F0B0890CDE9085153EC102B47
:105360009DED080B51EC100B01F042FB41EC1B0BC7
:105370009FED690B53EC102B9DED080B51EC100BBE
:1053800001F036FB9DED0C0B41EC1C0B53EC102B8C
:105390009DED080B51EC100B01F036FD53EC1A2B70
:1053A00001F05AFC9FED5E1B53EC112B01F020FB2A
:1053B00053EC1C2B01F0B4F841EC1A0B51EC1B0B15
:1053C00053EC1A2B01F0ACF8CDE902019DED020B74
:1053D00053EC1B2B51EC100B01F016FD53EC1A2B68
:1053E00001F03AFC9DED020B41EC1A0B53EC102B33
:1053F00051EC100B01F0FCFACDE908014A489DED93
:10540000080B0521784400F0AFF89DED081B51EC26
:10541000100B53EC112B01F0EBFA9DED021B53EC3A
:10542000112B01F019FCCDE906019DED020B53ECA7
:105430001A2B51EC100B01F0DBFA53EC1A2B01F094
:105440006FF89FED3B0B41EC1A0B53EC102B9DEDCD
:10545000060B51EC100B01F0D7FC9DED060B41EC57
:105460001B0B53EC102B9DED020B51EC100B01F0BC
:10547000BFFA53EC1B2B01F00FF953EC1A2B01F080
:10548000C3FC9DED021B53EC112B01F0BDFC53EC52
:10549000192B01F0E1FBCDE9020101EB06500115EA
:1054A0000029C8BF039015DC9DED020B324651EC7C
:1054B000100B01F070FEFEF788FF042808BF00F013
:1054C0001BF932469DED020B51EC100B01F063FE0F
:1054D000CDE902019DED020B51EC180B53EC102BA2
:1054E00001F086FAFFF73ABB000090400000000090
:1054F000FE822B654715973C00CC904000346F3FEF
:1055000001FCFFFF0000E03FC0200000FFFF0F0094
:1055100000000000432EE63F396CA80C615C20BE01
:10552000EF39FAFE422EE63FF81E000000000000B0
:105530000000000000000040BDEC088BBDEC06CB75
:10554000FFF720BABDEC088BBDEC06CBFFF758BACD
:10555000BDEC088BBDEC06CBFFF765BABDEC088B44
:10556000BDEC06CBFFF76DBB70B504462DED028B8D
:105570004D1E00EBC500B0EE408AF0EE608A90ED63
:10558000000B35F0060017D053EC182B51EC100B24
:1055900001F02EFA41EC100B6D1E04EBC50090EDEE
:1055A000001B51EC100B53EC112B00F0B9FF41EC38
:1055B000100B35F00600E7D1022D36D0042D1CD09B
:1055C000062D1CBFBDEC028B70BD53EC182B51ECAB
:1055D000100B01F00DFA94ED0A1B53EC112B00F0A7
:1055E0009FFF53EC182B01F003FA94ED081B53ECCA
:1055F000112B00F095FF41EC100B53EC182B51ECE4
:10560000100B01F0F5F994ED061B53EC112B00F093
:1056100087FF53EC182B01F0EBF994ED040B53ECDE
:10562000102B00F07DFF41EC100B53EC182B51ECCC
:10563000100B01F0DDF994ED021B53EC112B00F07F
:105640006FFF53EC182B01F0D3F994ED001B53ECD2
:10565000112B00F065FFBDEC028B41EC100B70BD0F
:105660009FED070B10B553EC102B9FED070B51EC82
:10567000100B01F011F841EC100B10BD0000000000
:105680000000000000000000000000000000F03FEB
:1056900010B553EC102B51EC100B00F041FF41EC16
:1056A000100B10BD10B553EC112B51EC100B00F08A
:1056B00037FF41EC100B10BD9FED050B10B553ECFF
:1056C000102B51EC100B00F0E7FF41EC100B10BD5C
:1056D00000000000000000009FED050B10B553EC2A
:1056E000102B51EC100B01F083F941EC100B10BDA5
:1056F00000000000000000709FED050B10B553EC9A
:10570000102B51EC100B01F073F941EC100B10BD94
:1057100000000000000000100FB410B52DED0A8B42
:105720009DED0DAADDED0E8A159C2AEE0A0A08EE03
:10573000A80AB5EEC00AF1EE10FA02DBB1EEC08A9B
:1057400001E09FED3A8A18EE100A01F047FC9DED4A
:105750000CCA41EC190BB1EE4C0A10EE100A01F024
:105760003DFC41EC100BB0EE491AF0EE691AFEF761
:10577000C3FF9FED2F9B51EC100B53EC192B00F046
:10578000CFFE00F09BFE606018EE900A01F026FC50
:1057900041EC1B0B1AEE100A01F020FC41EC100B3F
:1057A000B0EE4B1AF0EE6B1AFEF7A6FF53EC192B76
:1057B00051EC100B00F0B4FE00F080FECAEE08AA17
:1057C000A0609DED11BADDED10BADDED0F0A88EE97
:1057D00088AA2BEE0A0A0BEEAA0A2CEE400A00EE6B
:1057E000880A10EE100A01F0F9FB2BEE2A0A41ECB0
:1057F000180B0BEECA0A10EE100A01F0EFFB41EC99
:10580000100BB0EE481AF0EE681AFEF775FF53EC75
:10581000192B51EC100B00F083FE00F04FFE2060BE
:1058200000F00AB810BC5DF814FB00000000000096
:10583000FCA9F1D24D62503FBDEC088BBDEC02CB10
:10584000FFF7F0BF002202210148FBF794B90000E6
:105850000008004808B56A460321002000F02AFA33
:105860009DF80000032140F002028DF80020002086
:1058700000F03CFA6420FBF75DF86A460321002043
:1058800000F018FA9DF80000032140F020028DF886
:105890000020002000F02AFA0A20FBF74BF807222C
:1058A0008DF800200121302000F020FA0A20FBF7BB
:1058B00041F840228DF800200521002000F016FA62
:1058C0000A20FBF737F803228DF800200021302052
:1058D00000F00CFA0A20FBF72DF880228DF800204A
:1058E0000221302000F002FA0A20FBF723F8012100
:1058F000322000F008F86420FBF71CF80821312062
:1059000000F001F808BD70B50C4605460C220321D5
:10591000302000F0EBF92A460421302000F0E6F9AF
:1059200022460621302000F0E1F93220FBF702F890
:1059300081220521302000F0D9F9BDE870403220E5
:10594000FAF7F8BFB0F85020D0ED160A00EB82024B
:1059500092ED001A30EE411A70EE810AC0ED160A7F
:1059600082ED000AB0F85020521C93B2A0F85030DB
:10597000B0F85C2012B91422A0F85C2092B29342D5
:1059800002D10023A0F8503000EE102AD0ED160A04
:10599000B8EE401A80EE810A80ED150A81ED000A0A
:1059A000704710B541EC100BFEF73AFD51EC100BAF
:1059B00010BD00000FB42DE9F0411F4F8AB01F4CFD
:1059C0003878DDF8648006AE14AD00B314222946A1
:1059D00068460594FAF714FD10AF97E80F0000F041
:1059E000B7FC1422294668460596FAF709FD97E8A0
:1059F0000F00FFF791FE00BF94E80E00C8E9001207
:105A0000C8F808300AB0BDE8F0015DF814FB1422B4
:105A1000294668460596FAF7F3FC0DF1400C9CE820
:105A20000F00FFF779FE012006AB387093E80700FE
:105A300084E80700E0E70000280100209804002027
:105A4000012202210148FBF796B800000008004837
:105A5000818A00690122FBF78EB882B0CDE900018E
:105A600021F0004001909DED000B02B051EC100BB5
:105A7000704700002DE9F04105462DED028B0069CD
:105A800007687C6A95ED030ADFED310A287D002165
:105A900020EE200ADFED2F0A80EE808A9FED2E0A8D
:105AA00018B185ED000A297521E0A8680E4684EA40
:105AB000000281EA06031A4317D0021B76EB0102AB
:105AC0002CD2FA6A231A4FEA520C61EB0602BCEBA5
:105AD000030C76EB020C1ED2FA6A4042131B66EBF3
