:020000040800F2
:100000002811002069020008A7440008C33E000828
:10001000A5440008010800083D5900080000000040
:10002000000000000000000000000000D54A0008A9
:100030008708000800000000A9440008D74A00080B
:10004000830200088302000883020008830200087C
:10005000830200088302000883020008830200086C
:100060008302000883020008830200081D080008BC
:1000700083020008830200082908000835080008E8
:10008000410800084D0800088302000883020008A8
:10009000830200088302000883020008830200082C
:1000A000614B0008830200088302000883020008F5
:1000B00083020008830200086D4B000883020008D9
:1000C00083020008830200088302000883020008FC
:1000D0005D470008830200083159000883020008C8
:1000E00083020008830200088302000883020008DC
:1000F00083020008830200088302000883020008CC
:1001000083020008830200088302000883020008BB
:1001100083020008830200088302000883020008AB
:10012000830200088302000883020008830200089B
:10013000830200088302000883020008830200088B
:10014000830200088302000883020008830200087B
:10015000830200088302000883020008830200086B
:10016000830200088302000883020008830200085B
:1001700083020008830200088302000800000000D8
:10018000830200088302000800F002F800F05CF827
:100190000AA090E8000C82448344AAF10107DA45E2
:1001A00001D100F051F8AFF2090EBAE80F0013F0D8
:1001B000010F18BFFB1A43F00103184750910000CC
:1001C000709100000A444FF0000C10F8013B13F04E
:1001D000070408BF10F8014B1D1108BF10F8015BA0
:1001E000641E05D010F8016B641E01F8016BF9D193
:1001F00013F0080F1EBF10F8014BAD1C0C1B09D1EA
:100200006D1E58BF01F801CBFAD505E014F8016B5B
:1002100001F8016B6D1EF9D59142D6D370470000ED
:100220000023002400250026103A28BF78C1FBD8FF
:10023000520728BF30C148BF0B6070471FB508F098
:100240000EFB1FBD10B510BD00F05AF91146FFF7A7
:10025000F5FF07F05DF800F078F903B4FFF7F2FF5F
:1002600003BC00F07BF900000948804709480047BB
:10027000FEE7FEE7FEE7FEE7FEE7FEE7FEE7FEE756
:10028000FEE7FEE704480549054A064B70470000B3
:10029000514B000889010008280B0020281100207C
:1002A000280D0020280D002053EA020C00F0698080
:1002B0002DE9F04B4FF00006002B1FBFB3FA83F57A
:1002C00003FA05F424FA05F65E4012BF1643B2FAAB
:1002D00082F502FA05F4C5F120051EBF22FA05FCDD
:1002E00044EA0C04203556EA044C4FEA144418BF83
:1002F000641C4FF000084FF00009904271EB030CB2
:1003000039D3002919BFB1FA81F701FA07F6B0FA1B
:1003100080F700FA07F6C7F120071EBF20FA07FC96
:1003200046EA0C062037B6FBF4FCA7EB0507103FA6
:1003300007F01F0BCBF120060CFA0BFB2CFA06F68C
:1003400044BFB3460026202FA4BF5E464FF0000BEB
:100350005BEA060C08BF4FF0010B19EB0B09ABFB76
:10036000027C48EB0608C01B06FB02CC0BFB03CC4F
:1003700071EB0C01C1E70B46024641464846BDE819
:10038000F08B13B54FF000004FF00001AFF3008089
:10039000BDE81C407047032A40F2308010F0030C87
:1003A00000F0158011F8013BBCF1020F624498BFC8
:1003B00011F801CB00F8013B38BF11F8013BA2F165
:1003C000040298BF00F801CB38BF00F8013B11F0E0
:1003D000030300F02580083AC0F0088051F8043B80
:1003E000083A51F804CBA0E80810F5E7121D5CBFED
:1003F00051F8043B40F8043BAFF30080D20724BF20
:1004000011F8013B11F801CB48BF11F8012B24BFB3
:1004100000F8013B00F801CB48BF00F8012B704702
:1004200010B5203AC0F00B80B1E81850203AA0E88F
:100430001850B1E81850A0E81850BFF4F5AF5FEAC3
:10044000027C24BFB1E81850A0E8185044BF18C976
:1004500018C0BDE810405FEA827C24BF51F8043B1D
:1004600040F8043B08BF7047D20728BF31F8023B71
:1004700048BF11F8012B28BF20F8023B48BF00F805
:10048000012B70474FF0000200B513469446964684
:10049000203922BFA0E80C50A0E80C50B1F1200197
:1004A000BFF4F7AF090728BFA0E80C5048BF0CC045
:1004B0005DF804EB890028BF40F8042B08BF7047A3
:1004C00048BF20F8022B11F0804F18BF00F8012B15
:1004D000704770477047704710B500F009F8006822
:1004E00010BD10B5044600F003F8046010BD000014
:1004F00000487047C40A002000487047C40A002022
:100500007546FFF7F9FFAE4605006946534620F0F1
:100510000700854618B020B5FFF7B4FEBDE82040BF
:100520004FF000064FF000074FF000084FF0000BAF
:1005300021F00701AC46ACE8C009ACE8C009ACE862
:10054000C009ACE8C0098D46704710B50446AFF34A
:1005500000802046BDE81040FFF77FBE014918200B
:10056000ABBEFEE726000200704700009FED221A96
:100570009FED222A20EE010AB5EE001A30EE010AA4
:10058000BDEEC01A11EE100AB5EE400AF1EE10FAF7
:10059000B8BF013801EE100AB8EEC11A30EE410AB8
:1005A00020EE020ABDEEC01A9FED152A11EE100AC8
:1005B000002130EE021AB1EB502F48F608311CBF73
:1005C0000020B0EE410AC0F6000101EE100A01EB76
:1005D0008001B8EE411A30EE410A91ED001A91ED1A
:1005E000012AB7EE003A33EE403A23EE011A20EE2C
:1005F000020A31EE000A704783F9223E00000044EF
:10060000000000C49FED201A9FED202A20EE010A71
:10061000BDEEC01A11EE100AB5EE400AF1EE10FA66
:10062000B8BF013801EE100AB8EEC11A30EE410A27
:1006300020EE020ABDEEC01A9FED152A11EE100A37
:10064000002130EE021AB1EB502F48F608311CBFE2
:100650000020B0EE410AC0F6000101EE100A01EBE5
:100660008001B8EE411A30EE410A91ED001A91ED89
:10067000012AB7EE003A33EE403A23EE011A20EE9B
:10068000020A31EE000A704783F9223E000000445E
:10069000000000C410B5846A616D11F0500F06D0DF
:1006A000616DC90625D5204600F06FFB10BD606D59
:1006B00040F40070606520680168090716D503F0F2
:1006C00013FC78B12068C068800400280ADB606DE4
:1006D00020F480706065606DC00403D4606D40F0EC
:1006E00001006065204600F04EFB10BDC068800729
:1006F000EBE7E16C496BBDE81040084710B5806A34
:10070000416D41F040014165816D41F00401816519
:1007100000F03BFB10BD10B5806A00F035FB10BD4A
:10072000F8B50446002000902068816811F0010FA0
:1007300041D18168214A11422ED18168D543294097
:10074000491C81601E48806800F0E07000020DD5F1
:100750001C481D490068B0FBF1F0401C00EB400054
:10076000800000E0401E00900028FBD100F042FF16
:1007700006461BE0816811F0010F03D18168294012
:10078000491C816000F036FF801B02280ED92068CA
:100790000068C043C00709D0606D40F0100060657C
:1007A000A06D40F00100A0650120F8BD206801683F
:1007B000C943C907DED10020F8BD00003F0000801A
:1007C000000304502C010020400D0300094800885C
:1007D000DFED090A00EE100A9FED081AB8EE400A94
:1007E00020EE200AC0EE010AB0EE080A20EE800AD0
:1007F0007047000004000020D7A3404000F07F4570
:10080000FEE7000010B50021034802F0B9FB0249E1
:1008100000200968486310BD48030020014800F02B
:10082000CDBC000090040020014800F0C7BC0000CF
:10083000D8040020014800F0C1BC000020050020C1
:10084000014800F0BBBC000068050020014800F032
:10085000B5BC0000B005002030B590F8444004F06D
:100860001C050124AC40056C6C60046863608368FF
:10087000102B036803D099600068C26030BD9A6095
:100880000068C16030BD704772B6FEE72DE9F047E1
:10089000044690F850009AB00E464FF00009012827
:1008A00016D0012084F85000002515951695324F7A
:1008B0002068B84210D1DFF8C480CDF800804046EF
:1008C00003F00EFB8246206803F00AFB60B10EE0E5
:1008D00002201AB0BDE8F087606D40F0200060652E
:1008E00084F850500120F4E7BAF1000F0AD0606D8F
:1008F00040F0200060654FF0010900BF84F85050BF
:100900004846E6E71E4831681E4A0029816840F6DD
:100910001F7321F460411CD094F830C041EA4C317F
:10092000D6F804C041EA0C018160B968D8F80870B3
:1009300001F0010107F001079268394302F001025A
:100940001143DBD1B2683168114382689A43114385
:100950000FE08160B968D8F8086001F0010106F085
:1009600001069268314302F001021143C6D1816849
:1009700099438160C2E70000000004500001045068
:1009800000030450000204502DE9F84F00270446EC
:10099000009790F85000DFF8B8930D46B84601284C
:1009A00011D0012684F85060206803F095FA60B1F8
:1009B000606D40F0200060655FF0010784F85080B2
:1009C000384600F0DDB90220FBE76868052808D842
:1009D000022825D0032825D0042825D0052825D095
:1009E000062021680C2303EA901319442A680B6B34
:1009F00000F01F004FF01F0C0CFA00FCC2F38462E1
:100A000023EA0C03824013430B63206803F064FA6B
:100A10008246206803F05CFA5AEA000009D09AE0A6
:100A20000C20DEE71220DCE71820DAE74FF48070B4
:100A3000D7E7AA682968206803F05EFA2068696928
:100A4000C268C2F3C102520091402A69042A0FD041
:100A500000EB82002B68026EDFF8F8C203F0F84367
:100A600002EA0C020B431A4342F00041016672E0B5
:100A7000002103F027FA400320684FF0000172D0F4
:100A800003F020FA90FAA0F0B0FA80F1286842034F
:100A90006ED090FAA0F0B0FA80F0814204D100222A
:100AA0001146206803F037FA0121206803F00AFAA2
:100AB000400320684FF001015DD003F003FA90FA83
:100AC000A0F0B0FA80F12868420359D090FAA0F063
:100AD000B0FA80F0814204D100220121206803F0A5
:100AE0001AFA0221206803F0EDF9400320684FF064
:100AF000020148D003F0E6F990FAA0F0B0FA80F1D4
:100B00002868420344D090FAA0F0B0FA80F0814205
:100B100004D100220221206803F0FDF9032120689E
:100B200003F0D0F9400320684FF0030133D003F005
:100B3000C9F990FAA0F0B0FA80F1286842032FD0EA
:100B400090FAA0F0B0FA80F0814204D10022032193
:100B5000206803F0E0F92068816811F0010F22D0CD
:100B6000ABE000E004E003F0ADF9C0F384618DE791
:100B7000C0F3846091E703F0A5F9C0F38461A2E7B4
:100B8000C0F38460A6E703F09DF9C0F38461B7E782
:100B9000C0F38460BBE703F095F9C0F38461CCE750
:100BA000C0F38460D0E72A7B296850F8B03FC1F3D6
:100BB000120C23EA0C0302F0180C674A22FA0CF21A
:100BC0000A4013430360E968494576D12868410328
:100BD0001BD090FAA0F1B1FA81F1491C01F01F017C
:100BE00009294FEA403131D8002911D090FAA0F1FB
:100BF000B1FA81F101F1010101F01F0106FA01F6DC
:100C000009D100BFC0F3846109E0C0F38461E4E767
:100C1000C0F38461EEE790FAA0F1B1FA81F101F13D
:100C2000010101F01F0146EA816102D1C0F3846035
:100C300003E090FAA0F0B0FA80F000F1010000F0BB
:100C40001F0000EB400041EA005132E000290ED0C5
:100C500090FAA0F1B1FA81F101F1010101F01F0157
:100C600006FA01F606D100BFC0F3846106E0C0F3C6
:100C70008461F1E790FAA0F1B1FA81F101F101018B
:100C800001F01F0146EA816102D1C0F3846003E0F4
:100C900090FAA0F0B0FA80F000F1010000F01F001F
:100CA0002E4A00EB400002EB005041EA000141F007
:100CB0000071AA68206803F01FF929482A680242D7
:100CC0003FF47CAE27488168274E284B284D01F021
:100CD000E071B2421DD10E021BD422689A4202D0AA
:100CE000AA427FF46BAE826841F4000122F0E07208
:100CF0000A4382601F4820490068B0FBF1F0401CA5
:100D000000EB4000800000E0401E00900028FBD176
:100D100054E61A4EB24209D1CE0107D422689A4253
:100D200001D0AA42F4D141F080710AE06FF0004591
:100D3000EA42EDD14A02EBD422689A42E8D141F46A
:100D40008001826822F0E0720A43826036E6000089
:100D500000007F4000F0FF03FFFF0700000020FEBF
:100D60000000088000030450000052C70000045037
:100D7000000204502C010020400D0300000084CB31
:100D800018BCBDE8E08F704770477047F8B54FF06A
:100D9000000504002E46009502D0606D10B107E0FA
:100DA0000120F8BD204600F0D3F8A66584F8506015
:100DB00020688168C1F3407119B181685A4A1140B5
:100DC000816020688168C1F3007189B98168574AE0
:100DD000114041F080518160554856490068B0FB90
:100DE000F1F04000801C00E0401E00900028FBD184
:100DF00020688168C1F3007141B9616D41F0100153
:100E00006165A16D41F00101A165012503F064F860
:100E1000616DC90600D430B1606D40F010006065AE
:100E200001252846F8BD606D20F4807040F0020076
:100E300060652068806810F0010F15D13E48806819
:100E40003E4900F00100896801F0010108433C4976
:100E5000896801F00101084306D13A4960688A684F
:100E600022F47C1202438A60E168606B627E084370
:100E7000A16841EA4231084394F8201040EA014059
:100E8000012904D1A18C304A02EB41410843A16AF7
:100E900029B101F47071E26A014342EA010022685B
:100EA000D1682A4B19400143D160206803F010F843
:100EB000A8B9207E94F83010800340EA41012068F0
:100EC000C26844F202039A430A43C26094F83800AD
:100ED00001280CD02068016921F00101016120691D
:100EE00001282068016B21F00F0111D013E0D4E933
:100EF0000F010843D4E911121143084321680A691C
:100F000040F2FC739A43104340F001000861E6E7A9
:100F1000E269521E11430163606D20F0020040F04F
:100F2000010060657DE70000C0FFFF5FC0FFFF7F3D
:100F30002C010020400D030000000450000104506B
:100F400000020450000304500000FEFF07C0F0FF41
:100F500070B5A8B00646142122A8FFF793FA88219D
:100F60006846FFF78FFA27493068884247D14FF427
:100F700080400090800301241E901020CDE90240A3
:100F8000072004900220019405900690C005079068
:100F9000684600F001FC08B1FFF776FC1A49C86CFE
:100FA00040F40050C864C86C00F400502790C86C2E
:100FB00040F00400C864C86C002500F004002790CD
:100FC0000B20CDE9224022A92495104800F0FEF91B
:100FD000104C0F48C4E900058020A560C4E9035007
:100FE000400060618000A0612020C4E90705204620
:100FF00000F042F908B1FFF747FCF464A66228B09C
:1010000070BD0000000004500010024000080048BD
:1010100008000240900400202DE9F04104463948C0
:1010200017468846806800F01F05206802F054FFCC
:10103000002864D194F85000012860D0012084F881
:10104000500031492068884201D1012000E0002091
:10105000401E28424FF0000605D0052D03D0092D73
:1010600001D0012003E02046FFF75AFB18B184F8B5
:101070005060BDE8F081606D40F60161884340F446
:101080008070606521492068884201D1204900E0D4
:101090000146814200D01DB9606D20F4801060656A
:1010A000606DC00404D5A06D20F00600A06500E0CE
:1010B000A665E16C1748C862E16C17480863E16CEB
:1010C0001648486321681C20086084F85060206836
:1010D000416841F0100141602068C16841F00101A0
:1010E000C16021683B4642464031E06C00F024F983
:1010F00021688A680A4B1A40121D8A60B9E70220EB
:10110000B7E700000003045000020450000104503F
:10111000000004509506000817070008FD060008A7
:10112000C0FFFF7F10B590F825100022022905D0DE
:101130000421C16380F82420012010BD01680B68E0
:1011400023F00E030B6001680B6823F001030B60B2
:1011500090F84410046C01F01C03012101FA03F320
:10116000636080F8251080F82420104610BD10B56B
:1011700090F825100024022903D00421C163012422
:101180001AE001680A6822F00E020A6001680A6823
:1011900022F001020A6090F84410036C01F01C0276
:1011A000012101FA02F25A6080F82510002180F82E
:1011B0002410816B01B18847204610BDF0B4016C4A
:1011C0000C6801680D6890F8442002F01C060422A7
:1011D00002FA06F3234211D06B070FD50B689B066A
:1011E00003D40B6823F004030B6090F8441001F063
:1011F0001C018A40016C4A60016B1DE0022303FA66
:1012000006F727424FF0000C4FF0010218D0AF074D
:1012100016D50C68A40605D40C6824F00A040C60EA
:1012200080F8252090F8441001F01C018B40016CDF
:101230004B6080F824C0C16A00291AD0F0BC08476E
:101240000823B340234214D02B0712D50B6823F098
:101250000E030B6090F84410036C01F01C0102FABD
:1012600001F15960C26380F8252080F824C0416BE9
:10127000E2E7F0BC7047000070B568B12B4C036822
:1012800014212B4AA34209D22A4C1C44B4FBF1F18D
:101290008900C0E910210BE0012070BD234C64429D
:1012A0001C44B4FBF1F18900416420490839016410
:1012B000022180F825101C6847F6F0718C43D0E9B4
:1012C00002152943D0E9045635432943856929434A
:1012D000C5692943056A2943214319608168B1F52D
:1012E000804F19D0036C0F21934202D152F8A83FCE
:1012F00002E00E4AA032136890F8444004F01C0447
:10130000A1408B43136090F84430416803F01C0304
:1013100099401368194311600021C163012280F8CC
:10132000252080F82410084670BD00000804024003
:1013300000000240F8FFFDBF70B5044690F824009D
:10134000002501280CD0012084F8240094F82560A1
:101350000020012E06D084F824000225284670BD06
:10136000022070BD022684F82560E06320680668CC
:1013700026F0010606602046FFF76EFA206B002873
:101380002068016802D041F00E0106E021F004015E
:1013900001602068016841F00A010160206801686D
:1013A00041F001010160D9E770B5044600F022F96F
:1013B0000546601C02D004480078044400F01AF985
:1013C000401BA042FAD370BD200100202DE9F04F50
:1013D000DFF8EC9100220127A9F1040B85B0032569
:1013E0004FF00F0C09F1040AABF1040EE0E000BF6E
:1013F00007FA02F416EA04037ED00E7906F003061B
:10140000012E01D0022E1FD186680096560005FAE3
:1014100006F80496009E26EA08060096D1F80C808D
:10142000049E08FA06F8009E48EA0608C0F80880FC
:10143000466891F80480A643C8F3001808FA02F839
:1014400048EA0608C0F80480D1F804806FEA08066C
:10145000B6070AD1C66AA643C8F3C0049440344311
:10146000C4620C79E443A4070AD0C4684FEA420876
:1014700005FA08F6B4438E6806FA08F62643C660F5
:101480000C7904F00304022C11D1D40800EB84067B
:101490000296D6F820805407E60E0CFA06F428EAE5
:1014A00004080C69B440029E44EA080434620468EB
:1014B0005600029605FA06F6B4430E7906F00308C4
:1014C000029E08FA06F848EA0408C0F800804C6852
:1014D00014F4403F6BD03B4C266E46F00106266666
:1014E000246E22F0030604F001040094364C3444C8
:1014F0000294A468960700E059E04FEA16780CFAC7
:1015000008F6B443B0F1904F04D0304EB04203D14E
:1015100001261BE0002619E02D4EB04201D1022623
:1015200014E02C4EB04201D103260FE02A4EB04207
:1015300001D104260AE0294EB04201D1052605E07A
:10154000274EB04201D1062600E0072606FA08F62B
:101550002643029CA660D9F800404E46D1F804808C
:101560009C435FEAC82800D51C433460DAF8004089
:101570005646D1F804809C435FEA882800D51C4376
:101580003460DBF800405E46D1F804809C435FEA9B
:10159000883800D51C433460DEF800407646D1F828
:1015A00004809C435FEAC83800D51C433460521C59
:1015B0000B681E46D3407FF41BAF05B000F012B895
:1015C00008040140001002400000014000040048EF
:1015D00000080048000C00480010004800140048B3
:1015E0000018004830BCBDE8C08F0AB18161704767
:1015F0008162704701488068704700002001002028
:1016000002488168027811448160704720010020FF
:1016100010B50024032000F071F80F2000F008F846
:1016200008B1012401E000F025F8204610BD0000BB
:1016300070B50E4E05460024307898B14FF47A719B
:10164000B1FBF0F00A490968B1FBF0F001F0ECFBE6
:1016500040B9102D06D200222946501E00F02EF867
:10166000756000E00124204670BD000020010020CC
:101670002C010020094808B5016E41F00101016606
:10168000016E01F001010091816D41F08051816591
:10169000806D00F08050009008BD000000100240F6
:1016A000002809DB00F01F02012191404009800061
:1016B00000F1E020C0F8001170470000F0B40E4BBC
:1016C0001B680C46C3F30223C3F10705042D00D9A0
:1016D0000425191D072901D2002300E0DB1E012685
:1016E00006FA05F1491E214099409E40761E16409B
:1016F0003143F0BC04F03BB90CED00E0064900F0CA
:10170000070208684FF6FF03184040EA0220034A28
:1017100010430860704700000CED00E00000FA057F
:101720001649B0F5007F0868C0F3412009D00228AF
:1017300005D0086820F4C06040F480600860002094
:1017400070470128FBD0086820F4C06040F40070A6
:1017500008600B483222006850430A4AB0FBF2F09E
:10176000401C00E0401E4A69520501D50028F9D10D
:1017700048694005E3D50320704700000070004031
:101780002C01002040420F000248006800F4C060B5
:1017900070470000007000402DE9F84F0446002714
:1017A0000088E54D3E46010504F1200B1DD5606E15
:1017B00078B1B0F5800F11D0B0F5000F04D0B0F5BE
:1017C000400F22D001270FE0E86840F48030E86045
:1017D0001BE00021201D02F069FE03E000215846B5
:1017E00002F0FAFE070010D03E462088C00426D53D
:1017F000A06EC0B1B0F1807F1AD0B0F1007F0DD0E3
:10180000B0F1407F19D0012718E0D5F88800616E4B
:1018100020F440000843C5F88800E6E7E86840F493
:101820008030E86009E00021201D02F03FFE03E067
:101830000021584602F0D0FE0746F7B13E46206828
:1018400080033AD5A86D4FF00008C00009D4A86DF8
:1018500040F08050A865A86D4FF0010800F080505E
:101860000090DFF8D8A2DAF8001041F48071CAF8CD
:101870000010FFF7BFFE814610E0D5F88800A16E8A
:1018800020F040700843C5F88800D8E7FFF7B2FEA3
:10189000A0EB0900022801D9032705E0DAF80000CF
:1018A000C005F3D5002F7CD04FEA0706B8F1000F32
:1018B00003D0A86D20F08050A8652078C00707D01D
:1018C000D5F88800A16B20F003000843C5F8880014
:1018D0002078800707D5D5F88800E16B20F00C0050
:1018E0000843C5F888002078400707D5D5F8880058
:1018F000216C20F030000843C5F8880020780007EC
:1019000007D5D5F88800616C20F0C0000843C5F801
:1019100088002078C00607D5D5F88800A16C20F48F
:1019200040700843C5F888002078800607D5D5F8B0
:101930008800E16C20F440600843C5F888002088E6
:10194000800507D5D5F88800E16D20F440200843D4
:10195000C5F888002088400507D5D5F88800216E95
:1019600020F440100843C5F888002078400607D5C9
:10197000D5F88800216D20F440500843C5F8880050
:101980002078000607D5D5F88800616D20F4404026
:101990000843C5F888002088C00509D5D5F8880017
:1019A00000E01CE0A16D20F440300843C5F8880039
:1019B00020884FF0006780044FF080684FD5D5F83D
:1019C0008800E16E20F040600843C5F88800E06EB2
:1019D000B8423CD1E86840F48010E8603FE0D5F8B8
:1019E000900010F4407015D0D4F88410814211D0CA
:1019F000D5F89000D5F8901020F4407041F4803173
:101A0000C5F89010D5F8901021F48031C5F89010E9
:101A1000C5F89000C00710D0FFF7ECFD074641F273
:101A2000883906E0FFF7E6FDC11B494501D90326C9
:101A30003CE7D5F890008007F4D5D5F89000D4F8AD
:101A4000841020F440700843C5F890002EE740450C
:101A500005D10121201D02F029FD00B106462068B4
:101A6000000317D5D5F88800216F20F040600843A7
:101A7000C5F88800206FB84204D1E86840F48010AF
:101A8000E86007E0404505D10121201D02F00EFD70
:101A900000B106462068400317D5D5F88800616F6D
:101AA00020F040600843C5F88800606FB84204D158
:101AB000E86840F48010E86007E0404505D1012166
:101AC000201D02F0F3FC00B10646208840041AD520
:101AD000D5F88800A16F20F040500843C5F8880071
:101AE000A06FB0F1805F03D0B0F1005F05D00AE0D5
:101AF0000221201D02F0DAFC03E00221584602F028
:101B00006BFD00B106462088000407D5D5F8880093
:101B1000E16F20F080400843C5F888002068C003CA
:101B200007D555F8880FD4F8801020F000400843FE
:101B30002860304600F004B80010024000700040F9
:101B400018BCBDE8E08F00002DE9F0470F46050006
:101B50006BD0494E306800F00700B84209D23068B7
:101B600020F0070038433060306800F00700B842CA
:101B70005BD12878414C80070AD5A868A16801F09C
:101B8000F001884204D9A16821F0F0010143A1606D
:101B90002878C0072CD06868032811D0022812D0FA
:101BA000216898B1490500293FDAA16821F00301B5
:101BB0000143A160FFF71EFD804641F2883910E025
:101BC00021688901EFE721688903ECE78907EAE7E3
:101BD000FFF710FDA0EB0801494502D90320BDE83D
:101BE000F087A068696800F00C00B0EB810FEFD1BE
:101BF000287880070AD5A868A16801F0F00188421A
:101C000004D2A16821F0F0010143A160306800F026
:101C10000700B8420BD9306820F007003843306025
:101C2000306800F00700B84201D00120D7E72878DB
:101C3000400705D5A068E96820F4E0600843A0608B
:101C40002878000706D5A068296920F4605040EA8A
:101C5000C100A06000F03EF8A168094AC1F3031179
:101C6000515C01F01F01C840064908600648006841
:101C7000BDE8F047FFF7DCBC002002400010024046
:101C8000948900082C010020240100200548064901
:101C900000688968054AC1F30221515C01F01F0107
:101CA000C84070472C01002000100240D489000871
:101CB0000548064900688968054AC1F3C221515C9C
:101CC00001F01F01C84070472C01002000100240A5
:101CD000D489000870B52549002318468A68CC6865
:101CE00012F00C0204F00306214C4FEA640509D0FF
:101CF0000C2A05D0042A32D0082A00D1284670BD0B
:101D0000012E10D10B681B0704D4D1F89430C3F313
:101D1000032302E00B68C3F30313164E56F8233077
:101D2000DAB10C2AEBD1C86800F00300022818D001
:101D3000032818D01846CA68CB68C2F30212C3F34E
:101D400006234343521CB3FBF2F2C868C0F3416060
:101D5000401C4000B2FBF0F070BD184670BD20463C
:101D600070BD2046E7E72846E5E700000010024086
:101D70000024F400A48900082DE9F84304006FD082
:101D8000FD4DA86800F00C06E86800F00307207815
:101D9000C00664D576B10C2E01D1012F0AD0A069FE
:101DA000002828687AD040F001002860FFF722FC64
:101DB00080465DE02868800702D5A0690028DED053
:101DC000216A2868000703D5286800F0F00004E0C5
:101DD000D5F89400F02202EA1010814216D9084684
:101DE00002F07EFC00283BD1286840F00800286003
:101DF0002868216A20F0F000084328606868E169DB
:101E000020F47F4040EA0120686016E0286840F036
:101E1000080028602868216A20F0F0000843286044
:101E20006868E16920F47F4040EA0120686026B9D3
:101E3000206A02F055FC0028D5D1FFF74BFFA968B6
:101E4000CE4AC1F30311515C01F01F01C840CC49D7
:101E50000860CC480068FFF7EBFB00287ED12EE03D
:101E6000CAE000BFFFF7C6FBA0EB0800022876D847
:101E700028688007F6D5286840F0080028602868A0
:101E8000216A20F0F000084328606868E16920F4C6
:101E90007F4040EA0120686011E0FFE720F0010088
:101EA0002860FFF7A7FB804606E000BFFFF7A2FB14
:101EB000A0EB08000228DAD828688007F6D420783A
:101EC000C00740D0082E18D00C2E01D1032F14D0FB
:101ED0006068B0F5803F17D0B0F5A02F286817D004
:101EE00020F480302860286820F480202860606812
:101EF000E0B1FFF77FFB804614E02868800322D51D
:101F00006068002878D01EE0286840F48030EDE753
:101F100040F480202860F7E7FFF76CFBA0EB080097
:101F20006428A4D828688003F6D50CE0FFF762FB8C
:101F3000804605E0FFF75EFBA0EB0800642896D81A
:101F400028688003F6D4207880073BD5042E11D072
:101F50000C2E01D1022F0DD0E06801E086E1D6E021
:101F6000002828681ED040F480702860FFF742FBEC
:101F700007460CE0286840050CD5E0680028C1D071
:101F800008E000BFFFF736FBC01B022893D8286883
:101F90004005F7D56868217C20F0F85040EA0160E0
:101FA00068600FE020F480702860FFF723FB07468D
:101FB00005E000BFFFF71EFBC01B0228B1D8286850
:101FC0004005F7D42078000729D560690028D5F8A6
:101FD000940012D040F00100C5F89400FFF70AFB0E
:101FE000074604E0FFF706FBC01B022899D8D5F886
:101FF00094008007F6D512E000E120F00100C5F85A
:102000009400FFF7F7FA074605E000BFFFF7F2FA82
:10201000C01B02287BD8D5F894008007F6D420781E
:10202000400766D5A86D0027C00008D4A86D40F011
:102030008050A865A86D012700F08050009052489C
:102040000168C90512D40168814641F480710160BC
:10205000FFF7D0FA804605E0FFF7CCFAA0EB0800C6
:10206000022854D8D9F80000C005F5D5A068012889
:1020700016D00528D5F8900017D020F00100C5F83B
:102080009000D5F8900020F0040000BFC5F8900043
:10209000A06841F28839C0B1FFF7ACFA80460FE082
:1020A000D5F8900040F00100F0E740F00400C5F8DA
:1020B0009000F5E7FFF79EFAA0EB0801494526D806
:1020C000D5F890008007F5D50EE0FFF793FA80462B
:1020D00006E000BFFFF78EFAA0EB0801494516D8CD
:1020E000D5F890008007F5D41FB1A86D20F080507E
:1020F000A865A06AF0B302280AD00C2E7ED028680A
:1021000020F080702860FFF775FA0446B0E0ACE07C
:10211000E868E26A00F00301914229D1216B00F0E6
:10212000700209011039914222D1626B00F4FE4124
:10213000B1EB022F1CD1A26B00F40031072A01D0B1
:10214000012200E00022914212D1A18F00F4C002CE
:1021500049084905A1F50011914209D194F84010B0
:1021600000F0C06049084906A1F1007181425ED0CB
:102170000C2E0BE072E00000001002409489000871
:102180002C010020240100200070004079D0286834
:10219000400176D42868C00073D4286820F080708D
:1021A0002860FFF727FA064605E000BFFFF722FA8E
:1021B000801B022859D828688001F7D4D4E90B0184
:1021C0006FF00F0202EB01110843A18F520449087E
:1021D00002EB4151626B41EA0221084394F840103E
:1021E0004FF07E42490802EB41610843A16B0909A7
:1021F00040EA4140E968244A114000E041E00843D8
:10220000E860286840F080702860E86840F08070DE
:10221000E860FFF7EFF9044605E000BFFFF7EAF9D1
:10222000001B022821D828688001F7D527E02868FC
:10223000800124D4286840F080702860E86840F06D
:102240008070E860FFF7D6F9044604E0FFF7D2F9A2
:10225000001B022809D828688001F7D50FE000BFCD
:10226000FFF7C8F9001B022802D90320BDE8F88354
:1022700028688001F4D4E86804490840E860002038
:10228000F4E70120F2E700008C809DF9FCFFEEFEF0
:102290007047000038B5016804464A688868C04342
:1022A000430606D5C30704D1D3435B0601D4E16CD2
:1022B00005E0830708D4D3431B0605D4216D01B084
:1022C0002046BDE830400847830603D5430601D5C4
:1022D000C30551D4D3439B064ED443060AD494F885
:1022E0005D30032B49D0236E43F004032366CB6893
:1022F0008B680093830609D4236E43F001032366A1
:102300008B6800930B6823F040030B60C00506D474
:10231000206E40F008002066206880680090206EE3
:10232000002829D02068416821F0E00141600120A7
:1023300084F85D00900701D4D00722D0206841685E
:1023400021F003014160114DA06D40B18563A06D86
:10235000FEF70DFF18B1206E40F040002066606D62
:10236000002809D08563606DFEF701FF002803D0C7
:10237000206E40F04000206638BDC8688868009034
:1023800038BD2046FFF784FF38BD000069470008CC
:1023900070B5040009D0606A002540B1256165610F
:1023A000A56294F85D0040B10CE0012070BD60684A
:1023B000B0F5827FF4D0E561F2E784F85C50204606
:1023C00000F056F8022084F85D002068016821F0D2
:1023D00040010160E1684FF4E062914201D90020C0
:1023E00001E04FF48050B1F5706F02D0914200D0FF
:1023F000A562A188228901F4827102F4044211438A
:10240000227C02F002021143227D02F001021143FC
:10241000228B02F400721143227F02F03802114332
:1024200094F8202002F080021143228D02F4005221
:10243000114322681160A169042202EA114194F853
:10244000242000F4805002F01002114394F834204C
:1024500002F008021143A28902F4706211430143A1
:10246000206841602566012084F85D00002070BD71
:102470002DE9F04186B0064614216846FEF702F8C1
:1024800035493068884264D13448816D41F48041D7
:102490008165816D01F480410591C16C41F00401B9
:1024A000C164C16C01F004010591C16C41F00201ED
:1024B000C164C06C022500F0020005900C20CDE93B
:1024C000000502AA002403274FF0050882E89001C6
:1024D00069462348FEF77AFF6802CDE9000502AAA3
:1024E000694682E890011F48FEF770FF1F4D1E48A5
:1024F00001272860C5E901744FF08008C5E9034849
:102500006C61AC61EC6128462C62FEF7B5FE08B147
:10251000FEF7BAF9B565AE621348154D1430E5E81B
:1025200002071020A5E81101114845F81449AC61D3
:10253000EC612C62FEF7A0FE08B1FEF7A5F9756507
:10254000002211462420AE62FFF7B8F82420FFF7DE
:10255000A7F806B0BDE8F081003800400010024046
:10256000000800480004004844000240D80400204D
:10257000200500202DE9F84F044690F85D001D4627
:1025800016460F4601283FD160684FF00408B0F5A9
:10259000827F01D1A06868B3FFF72CF88246002F34
:1025A00070D0002E6ED094F85C0001282CD04FF033
:1025B000010984F85C9084F85D804FF00008C4F84D
:1025C00060802764A4F84460A4F84660C4F83880AA
:1025D000A4F83C80A4F83E80C4F84C80C4F8508035
:1025E000E0684FF4E0618842206842680ED922F426
:1025F00080520DE084F85D80009313460A46204621
:1026000000F0F9F900F075B80220FBE742F48052BF
:102610004260A068B0F5004F09D12068026822F03E
:10262000400202602068026822F480420260206852
:102630000268520603D4026842F040020260E06879
:1026400088421AD939E020688168C9070BD0017B1C
:10265000206C0170206C401C2064B4F84600401EC1
:10266000A4F8460009E0FEF7C5FFA0EB0A00A84267
:1026700002D3681C01D036E0A5B3B4F846000028A8
:10268000E1D11EE02CE020688168C9070BD0C0684A
:10269000216C0880206C801C2064B4F84600401E29
:1026A000A4F8460009E0FEF7A5FFA0EB0A00A84247
:1026B00002D3681C01D016E0A5B1B4F8460000288A
:1026C000E1D152462946204602F0D6F808B1202032
:1026D000206684F85D9084F85C80206E002891D09C
:1026E00001208FE7FFE784F85D9084F85C80032089
:1026F00088E718BCBDE8E08F70B5044690F85D002F
:1027000001282BD1A36804251BB96068B0F5827F2E
:1027100019D009B302B394F85C0001281ED001203F
:1027200084F85C0084F85D50002525662164A4F8D7
:102730004420A4F84620E5642565A587E587B3F520
:10274000004F0DD016E084F85D502046BDE8704083
:1027500013460A4600F08CBA012070BD022070BDFD
:1027600021680A6822F040020A6021680A6822F49F
:1027700080420A6021684A6822F400524A60E16897
:10278000B1F5E06F05D92068416821F480514160BE
:102790001EE021684A6842F480524A60A16D89694E
:1027A000B1F5806F14D121684A6822F480524A60E2
:1027B000B4F84610C90726D021684A6842F400528E
:1027C0004A60B4F8461000EB510000BFA4F8460080
:1027D000A16D1C480863A16D1B48C862A16D1B4810
:1027E0004863A06D8563B4F846302168226C0C31D3
:1027F000A06DFEF7A1FD78B1206E40F010002066BC
:1028000084F85C50A8E72068416821F400514160D9
:10281000B4F846004008D9E720680168490603D4A7
:10282000016841F04001016084F85C502068416813
:1028300041F0200141602068416841F001014160A0
:10284000002070BD9D470008B14700087B47000885
:102850000249884201D104F0EFBB7047B401002067
:1028600070472DE9F84F984616468A460446FEF70B
:10287000C1FE814694F85D00012820D1BAF1000F15
:102880006FD0002E6DD094F85C00012817D001277E
:1028900084F85C70032084F85D0000252566C4F888
:1028A00038A0A687E6872564A4F84450A4F84650CB
:1028B0002565E564A068B0F5004F03D00CE0022068
:1028C00000F096B82068016821F04001016020689E
:1028D000016841F48041016020680168490603D421
:1028E000016841F040010160E068B0F5E06F6068A8
:1028F00026D908B1012E1FD1A06B21680088C860BD
:1029000006E020688168890709D5A16B0988C16044
:10291000A06B801CA063E08F401EE0870CE0FEF7F8
:1029200069FEA0EB0901414503D3B8F1FF3F03D095
:102930004BE0B8F1000F48D0E08F0028E1D139E03A
:1029400008B1012E33D1E08F0128A06B03D9216893
:102950000088C86010E021680078087314E0E08700
:1029600025E043E020688168890713D5E18F0129BC
:10297000A16B07D90988C160A06B801CA063E08FA0
:10298000801EECE709780173A06B401CA063E08F08
:10299000401EE4E7FEF72EFEA0EB0901414503D3FC
:1029A000B8F1FF3F03D010E0B8F1000F0DD0E08F79
:1029B0000028D7D14A464146204601F097FF08B18A
:1029C00020202066A06830B109E084F85D7084F8AA
:1029D0005C50032074E72068C1688068009084F828
:1029E0005D7004F85C5F60680028F3D0012067E741
:1029F00018BCBDE8E08F2DE9FF5F1D4693460446F5
:102A00004FF001090E9EFEF7F5FD074694F85D00B4
:102A10006168012806D0B1F5827F39D1A168B1BBC8
:102A2000042835D1019800287CD0BBF1000FFBD0E1
:102A3000002DF9D094F85C00012829D04FF0010A4C
:102A400084F85CA094F85D00042802D0052084F886
:102A50005D004FF00008C4F86080C4F840B0A4F8EE
:102A60004650A4F844500199A163E587A587C4F8AE
:102A70004C80C4F85080E0684FF4E061884201D88F
:102A8000012D09D92068426822F4805208E0FFE74E
:102A9000022004B000F0E8B82068426842F4805296
:102AA000426020680268520603D4026842F0400285
:102AB0000260E0688842606846D908B1012D3BD1C8
:102AC000A06B01882068C160A06B801CA063E08FB0
:102AD000401EE08730E02068816889070FD5E18FCC
:102AE00069B1B9F1010F0AD1A16B0988C160A06B6E
:102AF000801CA063E08F401EE0874FF00009206833
:102B00008168C90711D0B4F8461071B1C068216C52
:102B10000880206C801C2064B4F84600401EA4F895
:102B2000460000E09EE04FF00109FEF763FDC01B88
:102B3000B04201D3701C74D1E08F0028CBD1B4F81F
:102B400046000028C7D175E008B1012D6BD1E08F98
:102B50000128A06B08D921680088C860A06B801C80
:102B6000A063E08F801E07E0216800780873A06BE7
:102B7000401CA063E08F401EE08754E0206881681D
:102B800089071AD5E18FC1B1B9F1010F15D1E18FD4
:102B90000129A16B07D90988C160A06B801CA063C3
:102BA000E08F801E06E009780173A06B401CA063D3
:102BB000E08F401EE0874FF0000920688168C90758
:102BC00028D0B4F8461029B3B4F84610012914D916
:102BD000C068216C0880206C801C2064B4F846001A
:102BE000801EA4F84600B4F84600012810D82068DA
:102BF000416841F4805141600AE0007B216C08701B
:102C0000206C401C2064B4F84600401EA4F8460026
:102C10004FF00109FEF7EEFCC01BB04202D3701C5E
:102C200001D012E08EB1E08F0028A7D1B4F84600A1
:102C30000028A3D13A463146204601F057FE50B154
:102C40002020206684F85C800CE084F85DA084F885
:102C50005C8003201DE784F85DA084F85C80206E12
:102C60000028F7D0012014E730BCBDE8C09F000069
:102C700070B5044690F85D006568012806D0B5F58A
:102C8000827F32D1A5687DBB04282ED151B34AB3CF
:102C900043B394F85C00012827D0012084F85C003D
:102CA00094F85D50042D02D0052584F85D50002570
:102CB0002566A163A387E3872264A4F84430A4F8BF
:102CC0004630E564256521684A6822F4C0424A60BE
:102CD000E168B1F5E06F0AD92068416821F48051BC
:102CE000416035E0012070BDFFE70220FBE721686D
:102CF0004A6842F480524A60616D4FF4806289698B
:102D000091420CD194F83C10C90721684B6838D027
:102D100043F480434B60E18F00EB5101E187A16DEB
:102D20008969914214D121684A6822F480524A602C
:102D3000B4F84610C9072AD021684A6842F4005204
:102D40004A60B4F8461000EB510000BFA4F84600FA
:102D500094F85D00042823D0A16D2D4808632D4808
:102D6000A16DC862A16D2C484863A06D8563B4F85D
:102D700046302168226C0C31A06DFEF7DDFA48BBAD
:102D800013E023F480434B60E18F4908C6E72068D5
:102D9000416821F400514160B4F846004008D5E78D
:102DA000A16D1E4808631E48DAE72068416841F0BB
:102DB00001014160606D0563606DC562606D4563D2
:102DC000606D8563E38F2268A16B0C32606DFEF746
:102DD000B3FA30B1206E40F01000206684F85C50E9
:102DE00080E720680168490603D4016841F040018A
:102DF000016084F85C502068416841F02001416026
:102E00002068416841F00201416000206BE700004A
:102E1000A74700081D4800087B4700089D47000899
:102E2000B14700087047704710B5401EB0F1807F71
:102E300001D3012010BD4FF0E02460610F21601725
:102E400002F095FD0020A06107202061002010BD48
:102E5000704770477047000030B590F83C20012A59
:102E60003AD0012280F83C20CA688B6822F4407274
:102E70001A434B6822F480621A430B6822F4006202
:102E80001A430B6922F480521A434B6922F4005210
:102E90001A438B6A22F480421A430B8B22F470226D
:102EA00042EA03420D4D03680024AB4202D00C4DB0
:102EB000AB420CD18D8C22F4700242EA0552CD69EE
:102EC00022F080722A43096A22F000720A435A648F
:102ED00080F83C40002030BD022030BD002C014075
:102EE00000340140F0B590F83C20012A39D001248B
:102EF00080F83C40022280F83D20026853689568C3
:102F0000194E1A4FB24201D0BA4204D123F4700CC8
:102F10004B6843EA0C0323F0700C0B6843EA0C0384
:102F200053600268B24210D0B2F1804F0DD0104B06
:102F30009A420AD00F4B9A4207D00F4B9A4204D0C4
:102F4000BA4202D00D4B9A4204D1896825F0800321
:102F50001943916080F83D40002180F83C100846FC
:102F6000F0BD0220F0BD0000002C01400034014003
:102F70000004004000080040000C004000400140F8
:102F800010B50446022249B104290ED0082913D0F5
:102F900094F84700012816D0012010BD94F8440091
:102FA0000128F9D184F844200FE094F84500012865
:102FB000F2D184F8452008E094F846000128EBD1CE
:102FC00084F8462001E084F847200422206801F0BC
:102FD00048FE2068416C41F4004141641149206879
:102FE000884211D0B0F1804F0ED00F4988420BD0EB
:102FF0000E49884208D00E49884205D00D498842C2
:1030000002D00D49884207D181680C4A1140062937
:1030100006D0B1F5803F03D0016841F001010160A5
:10302000002010BD002C01400004004000080040BA
:10303000000C004000340140004001400700010046
:1030400010B5040003D094F83D0010B107E0012052
:1030500010BD002084F83C00204600F023F8022038
:1030600084F83D00211D206801F086FD012084F8D0
:10307000480084F83E0084F83F0084F8400084F85B
:10308000410084F8420084F8430084F8440084F846
:10309000450084F8460084F8470084F83D0000208D
:1030A00010BD000008B51A4A01681A4891420ED1B5
:1030B000016E41F400610166006E002200F40060C0
:1030C000009011461820FEF7F9FA182010E0124A75
:1030D000914211D1816D41F004018165806D002222
:1030E00000F00400009011461E20FEF7E7FA1E20B3
:1030F000BDE80840FEF7D4BA084A914207D1016EF4
:1031000041F400510166006E00F40050009008BDCB
:10311000002C014000100240000800400034014033
:1031200090F83D10012901D001207047022180F85C
:103130003D100168CA6842F00102CA600068114986
:10314000884211D0B0F1804F0ED00F4988420BD089
:103150000E49884208D00E49884205D00D49884260
:1031600002D00D49884207D181680C4A11400629D6
:1031700006D0B1F5803F03D0016841F00101016044
:1031800000207047002C014000040040000800406F
:10319000000C0040003401400040014007000100E5
:1031A00070B5044690F83C000025012817D0012690
:1031B00084F83C60022084F83D00226890682F4B20
:1031C000184020F47F4090600868502838D00DDC0B
:1031D00020284FD005DC90B3102811D14AE00220FE
:1031E00070BD302846D040280AD13BE060282FD05F
:1031F00070280DD0B0F5805F03D0B0F5005F12D01D
:10320000012584F83D60002084F83C00284670BD0C
:10321000CB68D1E90121206801F030FD2068816888
:1032200041F0770109E0CB68D1E90121206801F084
:1032300025FD2068816841F480418160E1E719E063
:10324000CA684968206801F0B3FE5021206806E092
:10325000CA684968206801F0BCFE6021206801F05E
:1032600017FDCEE7CA684968206801F0A1FE402139
:103270002068F4E7226801461046F0E788FFFEFF69
:103280002DE9F0410D46040003D094F83D0018B13B
:1032900008E00120BDE8F081002084F83C002046D1
:1032A00000F042F8022084F83D00206881681D4A41
:1032B00011408160211D206801F05EFC2268906849
:1032C0009169166A2B68AF69034340F2033081436A
:1032D00041EA0721A868EF6908434FF6FC4188439B
:1032E000E96840EA0720014328692F6A000140EAA3
:1032F0000730084369686D6926F0AA0646EA051595
:10330000294393602268906154F8480B01620120C0
:1033100004F81F096075A075E076207720750020FD
:10332000B8E70000F8BFFEFF30B587B004461421AF
:103330006846FDF7A7F8246800221F4902234FF0D2
:103340009040B4F1804F1DD01C4DAC4218D18C6D13
:1033500044F002048C658C6D04F002040594CC6C7E
:1033600044F00104CC64C96C01F001010591C02155
:103370000091CDE901326946CDE90323FEF726F835
:1033800007B030BD8C6D44F001048C658C6D04F089
:1033900001040594CC6C44F00104CC64C96C01F0C8
:1033A0000101059103210091CDE901320121CDE90F
:1033B00003216946E2E700000010024000040040DB
:1033C00070B590F83E60044690F83F5090F8443055
:1033D00090F84520022021B104290ED0012E1BD1E6
:1033E00014E0012E18D1012B16D184F83E0084F888
:1033F000440001220021206820E0012D0CD1012A87
:103400000AD184F83F0084F8450014E0012D03D16F
:10341000012B01D1012A01D0012070BD84F83E00AA
:1034200084F83F0084F8440084F84500012200211C
:10343000206801F009FC01220421206801F004FC4D
:103440002068016841F001010160002070BD7047F3
:103450002DE9F04104460068C66805694FF0000791
:10346000A90713D5B10711D5F91E016101202077F5
:10347000206880698007204602D0FFF7E8FF04E05B
:1034800000F0E0F8204600F0A2F92777680716D58B
:10349000700714D521686FF00400086102202077BE
:1034A0002068806910F4407F204602D0FFF7CFFFEC
:1034B00004E000F0C7F8204600F089F927772807D4
:1034C00015D5300713D521686FF008000861042076
:1034D00020772068C0698007204602D0FFF7B7FF39
:1034E00004E000F0AFF8204600F071F92777E80615
:1034F00016D5F00614D521686FF010000861082079
:1035000020772068C06910F4407F204602D0FFF782
:103510009EFF04E000F096F8204600F058F9277767
:10352000E80708D0F00706D021686FF001000861B5
:10353000204600F0CFF9280601D4A80408D53006AB
:1035400006D521686FF4025008612046FFF781FC20
:10355000E80508D5300606D521686FF4807008614B
:103560002046FFF775FC680608D5700606D5216869
:103570006FF040000861204600F0C0F9A8060AD5A7
:10358000B00608D521686FF0200008612046BDE82C
:10359000F041FFF75FBCBDE8F081000070B586B078
:1035A000044614216846FCF76DFF224B2268002474
:1035B000214902254FF090409A4211D1CA6C42F045
:1035C0000102CA64C96C01F0010105914FF4407118
:1035D0000091CDE901540121CDE90341694624E080
:1035E000164B9A4223D1CA6C42F00102CA64CA6CDB
:1035F00002F001020592CA6C42F00402CA64C96C6E
:10360000032601F00401059120210091CDE9015428
:10361000CDE903466946FDF7D9FE40200090CDE98B
:103620000154CDE9034669460548FDF7CFFE06B0D3
:1036300070BD0000002C0140001002400034014029
:1036400000080048704770B5044690F83C0000261A
:103650000D4601280BD0012084F83C000C2A4AD0EA
:1036600007DC82B1042A20D0082A06D131E00220EA
:1036700070BD102A53D0142A63D00126002084F88C
:103680003C00304670BD206801F00AFB206881696B
:1036900041F0080181612068816921F004018161A4
:1036A000206881692A69114311E0206801F046FB16
:1036B0002068816941F4006181612068816921F499
:1036C00080618161206881692A6941EA0221816102
:1036D000D4E7206801F07AFB2068C16941F0080155
:1036E000C1612068C16921F00401C1612068C1691C
:1036F0002A69114311E0206801F0B0FB2068C1691C
:1037000041F40061C1612068C16921F48061C16137
:103710002068C1692A6941EA0221C161AEE72068D7
:1037200001F0D6FB2068416D41F008014165206839
:10373000416D21F0040141652068416D2A69114302
:1037400011E0206801F0FCFB2068416D41F400614C
:1037500041652068416D21F4806141652068416DBB
:103760002A6941EA0221416588E710B5040003D0C7
:1037700094F83D0010B107E0012010BD002084F84E
:103780003C00204600F022F8022084F83D00211D74
:10379000206801F0F1F9012084F8480084F83E0027
:1037A00084F83F0084F8400084F8410084F8420027
:1037B00084F8430084F8440084F8450084F8460007
:1037C00084F8470084F83D00002010BD7047704722
:1037D00030B50446022269B1042912D0082917D055
:1037E0000C291CD0102921D094F84300012824D0A2
:1037F000012030BD94F83E000128F9D184F83E2024
:103800001DE094F83F000128F2D184F83F2016E033
:1038100094F840000128EBD184F840200FE094F8A0
:1038200041000128E4D184F8412008E094F84200E6
:103830000128DDD184F8422001E084F843200122F0
:10384000206801F001FA1A4A20681A4B1A4990427E
:1038500009D0984207D0884205D0184DA84202D01E
:10386000174DA84203D1456C45F4004545642068D6
:1038700090420FD0B0F1804F0CD0124A904209D044
:10388000114A904206D0114A904203D0984201D08A
:10389000884207D181680E4A1140062906D0B1F549
:1038A000803F03D0016841F001010160002030BD7C
:1038B000002C014000340140004001400044014020
:1038C000004801400004004000080040000C004097
:1038D000070001000068064B0121064A984201D109
:1038E00091707047044B9842FBD1D1707047000033
:1038F0000008004000000020000C0040704710B598
:103900000446D0F88000202801D0022010BD61B10B
:103910005AB10120206600206066204601F06EFF4B
:103920000028F3D1216E012901D0012010BD2268A9
:1039300010211162226852E8001F41F0100142E894
:103940000013002BF6D110BD2DE9F05F0F4618498A
:1039500088422AD1DFF860A000244FF40079DFF814
:1039600054800AF1800B1AE01AF804604946B8F84E
:10397000020003F0E7FDB8F804100546884206D1BE
:103980004946B8F8040003F0DDFDA8F80400B8F8D3
:1039900002200BF80260A8F80250641CA4B2BC42DA
:1039A000E2D300F00BB804F033B800F00CB800001C
:1039B00094030020320100201806002030BCBDE82E
:1039C000C05FFFF7F0BF30BCBDE8C09F70477047D5
:1039D0002DE9F04102680446D0691168936840F609
:1039E0000F0528424FF000054FF0020605D187066B
:1039F0007ED58F067CD5A16E33E1DFF894C203F04B
:103A0000010701EA0C0C57EA0C0C71D05FEAC07C8C
:103A10000CD05FEAC15C09D54FF0010CC2F820C0A0
:103A2000D4F8842042F00102C4F88420820709D52A
:103A3000DA0707D022681662D4F8842042F0040224
:103A4000C4F8842042070AD5DA0708D02368042284
:103A50001A62D4F8842042F00202C4F884200207DB
:103A60000CD501F020023A4308D0236808221A62DC
:103A7000D4F8842042F00802C4F8842002050BD553
:103A80004A0109D523684FF400621A62D4F88420F1
:103A900042F02002C4F88420D4F88420002A36D0D2
:103AA000800605D5880603D5A16E09B12046884752
:103AB000D4F8840021688968490602D410F0280FE0
:103AC00027D0204601F006FD2068806840061BD5FF
:103AD0002068083050E8001F21F0400140E8001243
:103AE000002AF5D1606F78B16A498163606F00E0A8
:103AF00015E0FDF73CFB002809D0606F816B00E00A
:103B00002046BDE8F04108472046FFF760FFBDE8CA
:103B1000F0812046FFF75BFFC4F88450F7E7D4F844
:103B200060C02027BCF1010F7ED15FEAC06C7BD55D
:103B30005FEAC16C78D5102010622068806840066A
:103B40004FD5616F0A6850680004000C3DD0B4F88E
:103B50005830834239D9A4F85A00086800688006B2
:103B60002BD4206850E8001F21F4807140E8001237
:103B7000002AF6D12068083050E8001F21F001012A
:103B800040E80012002AF5D12068083050E8001FF4
:103B900021F0400140E80012002AF5D1C4F88070FD
:103BA0002566206850E8001F21F0100140E800124F
:103BB000002AF6D1606FFDF7B5FA6666B4F85800D2
:103BC000B4F85A10401A81B207E0B4F85810814294
:103BD0009DD1106880069AD566662046FFF7B4FE30
:103BE00095E7B4F85800B4F85A10401A81B2B4F806
:103BF0005A0000288BD0002989D0226852E8000F93
:103C000020F4907042E80003002BF6D120680830C1
:103C100050E8002F22F0010240E80023002BF5D1EC
:103C2000C4F88070256600E00AE0A566226852E8C4
:103C3000000F20F0100042E80003002BF6D1CBE784
:103C4000C60209D55B0207D54FF4801010622046EA
:103C5000BDE8F041FFF7BABE020606D50A0604D554
:103C6000E16E00297FF44CAF51E74006B8D5480615
:103C7000B6D52046026852E8001F21F0400142E814
:103C80000013002BF6D1C767C56600F0F9F83EE7D0
:103C9000200100048153000810B5040002D0E06F39
:103CA00010B107E0012010BD002084F87800204604
:103CB00000F026F82420E0672068016821F0010167
:103CC0000160606A10B1204601F0A2FA204601F0BE
:103CD00071FC0128E7D02068416821F490414160DF
:103CE0002068816821F02A0181602068016841F024
:103CF000010101602046BDE8104001F0EDBA00006E
:103D00002DE9F041A8B00546142122A8FCF7BAFB22
:103D100088216846FCF7B6FB30492868884259D1AB
:103D200002260024009668460F94FDF735FD08B181
:103D3000FCF7AAFD2A48816D41F400318165816D4F
:103D400001F400312791C16C41F00101C164C06CE4
:103D500022A900F0010027900C20CDE922060320C3
:103D6000CDE92440072026904FF09040FDF72EFB30
:103D70001D4F1C484FF080083860C7E90164C7E94F
:103D800003487C61BC61FC6138463C62FDF774FA13
:103D900008B1FCF779FD6F67BD621248134F14300C
:103DA000E7E802061020A7E81101104847F8144977
:103DB000BC61FC613C62FDF75FFA08B1FCF764FD91
:103DC0002F67002202212620BD62FDF777FC262006
:103DD000FDF766FC28B0BDE8F0810000004400401B
:103DE000001002406C00024068050020B005002071
:103DF0007047704770B50446C06F202801D002207C
:103E000070BD29B322B3E164A4F85020A4F8522075
:103E10000021C4F884102120E067206FD0B1154B39
:103E2000C362236F14481863236F14485863206FCC
:103E3000134681632068256F00F128022846E16C53
:103E4000FDF77AFA30B11020C4F884002020E06732
:103E5000012070BD2168402008622068083050E8C9
:103E6000001F41F0800140E80012002AF5D1002037
:103E700070BD000089540008CB5400089553000819
:103E800070B50D49884216D172B600240B4D4FF41F
:103E9000007606E03146288903F054FB2881641C33
:103EA000A4B268898442F5D30020287062B6BDE8C8
:103EB000704003F0C1BD70BD9403002032010020AA
:103EC0007047FEE700EB8100006E00F0F84070479D
:103ED0008068C0F3C00070478068C0F380007047FE
:103EE0008068C0F380007047C06810F4406F01D054
:103EF0000020704701207047042303EAD15310B516
:103F000018444369C1F3045107248C40A3438A40F9
:103F10001343436110BD00EB8100016E21F00041AD
:103F2000114301667047000030B589B00024069443
:103F30000794182168460894FCF7A4FA1F481E4904
:103F4000042501604FF48021C0E90114C460C0E978
:103F50000445047601214176C16180F820408462E5
:103F6000C46280F83010446380F83840FCF70EFFDC
:103F700008B172B6FEE706A910480694FCF786FC65
:103F800008B172B6FEE70E480090062001900720A7
:103F900002907F200594CDE9030569460748FCF7A8
:103FA000F3FC08B172B6FEE7012206490348FDF7AB
:103FB00033F809B030BD000000000450500100206B
:103FC0000200300404000020194808B5816C41F05B
:103FD00001018164806C002200F001000090012149
:103FE0000B20FDF76BFB0B20FDF75AFB002211465F
:103FF0000E20FDF763FB0E20FDF752FB0022114659
:104000000F20FDF75BFB0F20FDF74AFB0022114656
:104010001020FDF753FB1020FDF742FB0022114654
:104020001120FDF74BFBBDE808401120FDF738BB20
:10403000001002402DE9F04387B014216846FCF7D8
:1040400021FA3148C16C41F00401C164C16C01F036
:1040500004010591C16C41F00101C164C16C01F022
:1040600001010591C16C41F00201C164C06C274F90
:1040700000F0020040F2023405900022214638464A
:10408000FDF7B3FADFF88880002207214046FDF7EC
:10409000ACFA4FF480664FF0904900223146484612
:1040A000FDF7A3FA0125CDE90045002402946946F5
:1040B00038460394FDF78AF907200090CDE90154B2
:1040C000694640460394FDF781F9A8030090022059
:1040D000CDE901040E20CDE9034069464046FDF7D5
:1040E00075F90096CDE90154694648460394FDF7F9
:1040F0006DF94FF4C0508DE8310069464846FDF730
:1041000065F907B0BDE8F0830010024000080048E0
:1041100000040048114810B50F4901604FF4827146
:10412000416000214FF4E062C0E902120222026104
:1041300001224261520282611822C0E9072107224E
:104140004162C0E90A1201634163FEF721F90028C8
:1041500001D072B6FEE710BD00380040B401002067
:1041600010B59AB0002417941894159416941294CC
:1041700013941C210BA81494FCF784F92C21684695
:10418000FCF780F92F482E4901604F21C0E9011446
:1041900040F2E731C0E9031444618461FEF750FF47
:1041A00008B172B6FEE74FF48050159015A9254866
:1041B000FEF7F6FF08B172B6FEE72248FFF7D5FA20
:1041C00008B172B6FEE71294139412A91D48149414
:1041D000FEF788FE08B172B6FEE76020CDE90B0459
:1041E0000D940E940F94109400220BA9154811946D
:1041F000FFF729FA08B172B6FEE704220BA91148AD
:10420000FFF721FA08B172B6FEE700944FF40050B0
:10421000CDE9044001940294039400030694CDE98F
:1042200007400994694607480A94FEF715FE08B14D
:1042300072B6FEE70348FFF7B1F91AB010BD0000EF
:10424000002C01401802002010B58CB024216846D3
:10425000FCF718F90024164809940A944FF080419D
:104260000B94C0E90014611EC0E90241046184613D
:104270000120CDE90004CDE902040494CDE9054014
:10428000079469460A480894FEF7FAFF08B172B627
:10429000FEE7099409A906480B94FEF723FE08B12E
:1042A00072B6FEE73C210248FFF78AF80CB010BD59
:1042B0006402002010B58CB024216846FCF7E2F8B7
:1042C0000024174809940A9414490B94C0E9001477
:1042D0004FF6FF71C0E90241046184610120CDE91C
:1042E0000004CDE902040494CDE905400794694631
:1042F0000B480894FEF7C4FF08B172B6FEE70994B4
:1043000009A907480B94FEF7EDFD08B172B6FEE768
:104310003C210348FFF754F80CB010BD00040040E6
:10432000B002002010B588B0002418480094019411
:1043300002940394049405941349069401604F2158
:10434000C0E9011440F2CF71C0E903148461FEF7A3
:1043500077FE08B172B6FEE74FF4805000906946D0
:104360000A48FEF71DFF08B172B6FEE7049404A9DF
:1043700006480694FEF7B6FD08B172B6FEE703489C
:10438000FEF7CEFE08B010BD00080040FC02002081
:1043900010B59AB00024179418941594169412949A
:1043A00013941C210BA81494FCF76CF82C2168467C
:1043B000FCF768F82C482B4901604F21C0E9011433
:1043C00040F27111C0E9031444618461FEF738FEC4
:1043D00008B172B6FEE74FF48050159015A9224837
:1043E000FEF7DEFE08B172B6FEE71F48FFF7BDF923
:1043F00008B172B6FEE71294139412A91A481494E5
:10440000FEF770FD08B172B6FEE760200B90B92090
:10441000CDE90C040E940F94109400220BA91248BD
:104420001194FFF710F908B172B6FEE700944FF44B
:104430000050CDE9044001940294039400030694D3
:10444000CDE90740C012CDE9094069460648FEF7AC
:1044500003FD08B172B6FEE70348FFF79FF81AB0F4
:1044600010BD000000340140480300200C4810B586
:104470000A4901604FF4E1314160002181600C2262
:10448000C160C0E904128161C16101624162FFF74C
:1044900003FC002801D072B6FEE710BD00440040C6
:1044A00094030020FEE7FEE7704700002DE9F0418D
:1044B000444C05468846E0680026810728680DD0F0
:1044C000E16801F00301814216D1A8B1E068696892
:1044D000C0F30210401C88420ED120E0012804D015
:1044E000022805D0032807D108E02168890701E0E8
:1044F00021684905002907DB01265FE0216889035F
:1045000002D421684903F5E7E1686A686FF00F0398
:1045100021F0730103EB021211430143E1602068B3
:1045200020F080602060FDF765F8074605E000BFD9
:10453000FDF760F8C01B022837D820680001F7D4C7
:10454000B8F1000F18D0B8F1010F1ED0287D4FF040
:104550007E41400801EB4060A96840EA01202169E2
:10456000194A114008432061206840F080602060B3
:10457000FDF740F807461AE0A868E9680002090953
:1045800040EA41402169114AEBE7288A1049400876
:1045900001EB4050A96840EA012021690D4AE0E79B
:1045A000FDF728F8C01B022801D9032606E0206881
:1045B0000001F5D52069A969084320613046BDE8AE
:1045C000F081000000100240FF80FFF9FF80FDFF36
:1045D0000000E0FFFF809FFF2DE9F0413D4C0646C3
:1045E0008846E0680025810730680DD0E16801F059
:1045F0000301814216D1A8B1E0687168C0F30210CE
:10460000401C88420ED120E0012804D0022805D0A9
:10461000032807D108E02168890701E021684905DE
:10462000002907DB012551E02168890302D42168B4
:104630004903F5E7E16872686FF00F0321F0730139
:1046400003EB021211430143E160206820F0805027
:104650002060FCF7CFFF074605E000BFFCF7CAFF6C
:10466000C01B022829D820688000F7D4B8F1000FB9
:1046700015D0307C4FF07E41400801EB4060B168BE
:1046800040EA01206169144A1140084360612068D2
:1046900040F080502060FCF7ADFF07460FE0B068A7
:1046A000F1680002090940EA414061690B4AEBE701
:1046B000FCF7A0FFC01B022801D9032506E02068F3
:1046C0008000F5D560697169084360612846BDE8DE
:1046D000F081000000100240FF80FFF9FF80FDFF25
:1046E000F8B51C4D06460024A86DC00002D5FDF7A4
:1046F0004BF80DE0A86D40F08050A865A86D00F063
:1047000080500090FDF740F8A96D21F08051A96517
:10471000B0F5007F04D0802E07D94FF003040AE0E3
:10472000802E08D9A02E01D804E001D1022402E095
:10473000702E00D101240848016821F007012143AF
:104740000160006800F00700A04201D00120F8BD20
:104750000020F8BD00100240002002400148FDF793
:1047600099BD0000B401002010B5806A0021A0F8B6
:104770004610C187FDF78CFD10BD10B5806A016839
:104780004A6822F003024A60016E41F0100101669E
:10479000012180F85D10FDF77BFD10BD10B5806A2A
:1047A000FEF75EF810BD10B5806AFEF73CFB10BD49
:1047B00070B50546846AFCF71DFF0246286800684C
:1047C000800627D42068416821F020014160A0685C
:1047D00018B96068B0F5827F17D02068416821F071
:1047E000010141606421204600F046F808B1202014
:1047F00020660020A4F84600012084F85D00206EA9
:1048000040B12046FDF744FD70BD2068416821F0AD
:104810000301E6E72046FEF71BF870BD70B50546BC
:10482000846AFCF7E7FE02462868006880061FD409
:104830002068416821F0200141606421204600F099
:1048400055F818B1206E40F02000206620684168BD
:1048500021F0030141600020E087A4F84600012018
:1048600084F85D00206E18B12046FDF711FD70BD83
:104870002046FEF7D7FA70BD2DE9F843044640689C
:104880004FF48276154689464FF400474FF480680E
:10489000B04209D1A068B84201D0404504D1206897
:1048A000016821F0400101604B4600228021204632
:1048B000009500F0B3F880B96068B04214D1A068E8
:1048C000B84201D040450FD14B4600224FF4C061A1
:1048D0002046009500F02EF830B1206E40F0200008
:1048E00020660320BDE8F8830020FBE7F8B51546F5
:1048F0000E460B460092044600224FF4C05100F0D1
:1049000019F888B93346002280212046009500F02E
:1049100085F848B9334600224FF4C061204600951F
:1049200000F008F8002804D0206E40F02000206637
:104930000320F8BD2DE9FE4F4FF0000A98461746B8
:104940000E4604460C9D8DF804A0FCF753FE411B57
:10495000A8EB0105FCF74EFE814620684FF4C06BC2
:104960000C3002902A480068C0EBC00000EB8000C9
:10497000000D6843009043E05E4506D12FB90298D0
:1049800000788DF804009DF80400B8F1FF3F37D09F
:10499000FCF730FEA0EB0900A84203D215B1009845
:1049A00058B32BE02068416821F0E0014160606865
:1049B000B0F5827F0BD1A068B0F5004F02D0B0F502
:1049C000806F04D12068016821F040010160A06A75
:1049D000B0F5005F09D12068016821F40051016041
:1049E0002068016841F400510160012084F85D00F5
:1049F00084F85CA0032000F00DB80025401E009054
:104A0000206880683040B842B6D10020F3E700004B
:104A10002C0100201EBCBDE8E08F00002DE9F8430A
:104A20001E46914688460446089DFCF7E3FD401B60
:104A3000351AFCF7DFFD074625480068C0F3CB3088
:104A4000684338E0701C37D0FCF7D4FDC01BA84287
:104A500003D215B1009860B32CE02068416821F0C2
:104A6000E00141606068B0F5827F0BD1A068B0F5CD
:104A7000004F02D0B0F5806F04D12068016821F0AA
:104A800040010160A06AB0F5005F09D120680168AB
:104A900021F4005101602068016841F40051016077
:104AA000012084F85D00002084F85C000320BDE84C
:104AB000F8830025401E00902068816838EA0100D4
:104AC00004D000214945BDD10020F0E70121F9E7DC
:104AD0002C0100207047FCF793BD10B596B044211F
:104AE0006846FBF7CFFC142111A8FBF7CBFC4FF471
:104AF0000070FCF715FE08B172B6FEE710200090BA
:104B00000120002460210690CDE907410221CDE972
:104B10000A100C9028200D900720CDE90E01684660
:104B20001091FDF729F908B172B6FEE70F20119038
:104B30000320CDE912041494042111A81594FDF763
:104B400003F8002801D072B6FEE716B010BD0000D1
:104B50000248016841F470010160704788ED00E08F
:104B60000148FEF775BC0000180200200148FEF75E
:104B70006FBC0000FC0200202DE9F04702682A4BC0
:104B80002A4D2B4E2B4F2C4C4FF0804A984209D087
:104B9000504507D0A84205D0B04203D0B84201D05A
:104BA000A04204D122F0700C4A6842EA0C02DFF8FD
:104BB0008CC0DFF88C80DFF88C9098420FD0504585
:104BC0000DD0A8420BD0B04209D0B84207D0A042C5
:104BD00005D0604503D0404501D0484503D122F4BB
:104BE0004075CA682A434D6922F080022A43026058
:104BF0008A68C2620A688262984207D0A04205D0E1
:104C0000604503D0404501D0484501D109690163A1
:104C1000012141610169C90703D0016921F0010146
:104C20000161BDE8F0870000002C01400004004055
:104C300000080040000C00400034014000400140EA
:104C4000004401400048014010B501F01F0301215C
:104C5000046A99408C430462016A9A4011430162DC
:104C600010BD10B501F00F030421046A99408C4374
:104C70000462016A9A401143016210BD10B5846854
:104C800042EA032224F47F440A432243826010BD97
:104C9000826822F070020A4342F007018160704787
:104CA0002DE9F043056A026A22F0010202624368BC
:104CB00082691C4C25F0020522400C6822F0030298
:104CC00014438A68194E2A43174D194FDFF864C000
:104CD000DFF86490A84207D0B04205D0B84203D0B4
:104CE000604501D0484506D122F00808CA6842EA6A
:104CF000080222F00402A84207D0B04205D0B84210
:104D000003D0604501D0484505D14D6923F4407377
:104D10001D438B692B434360846149684163026290
:104D2000BDE8F0838FFFFEFF002C014000340140FE
:104D3000004001400044014000480140F0B5056AD0
:104D4000026A22F01002026242688369194C1B4E0B
:104D500023400C6823F4407343EA042425F0200325
:104D60008D6843EA0513144DA84201D0B04206D124
:104D7000CF6823F0800343EA071323F04003A842DF
:104D80000AD0B04208D00E4DA84205D00D4DA84221
:104D900002D00D4DA84207D14D6922F4406242EA8B
:104DA00085028D6942EA85024260846149688163B7
:104DB0000362F0BDFF8FFFFE002C01400034014074
:104DC000004001400044014000480140F0B5056A40
:104DD000026A22F4807202624368C269194C1B4E57
:104DE00022400C6822F00302144325F400728D68FF
:104DF00042EA0522144DA84201D0B04206D1CF6844
:104E000022F4006242EA072222F48062A8420AD019
:104E1000B04208D00E4DA84205D00E4DA84202D097
:104E20000D4DA84207D14D6923F4405343EA0513C1
:104E30008D6943EA05134360C4614968C163026236
:104E4000F0BD00008FFFFEFF002C01400034014048
:104E500000400140004401400048014030B5046A70
:104E6000026A22F4805202624268C369124D24F43D
:104E700000542B400D6823F4407343EA05238D68EA
:104E800044EA05340D4DA8420BD00D4DA84208D080
:104E90000C4DA84205D00C4DA84202D00B4DA842A3
:104EA00004D14D6922F4804242EA85124260C36116
:104EB00049680164046230BDFF8FFFFE002C014091
:104EC00000340140004001400044014000480140DE
:104ED00030B5056A026A22F4803202624268436D8C
:104EE000114C23400C681C4325F400330D8943EA20
:104EF00005430E4DA8420BD00D4DA84208D00D4DD4
:104F0000A84205D00C4DA84202D00C4DA84204D1B5
:104F10004D6922F4803242EA0522426044654968C4
:104F20008165036230BD00008FFFFEFF002C014051
:104F3000003401400040014000440140004801406D
:104F400030B5046A026A22F4801202624268436D3C
:104F5000114D24F400142B400D6843EA05230D89FC
:104F600044EA05540D4DA8420BD00D4DA84208D07F
:104F70000C4DA84205D00C4DA84202D00B4DA842C2
:104F800004D14D6922F4802242EA852242604365C1
:104F90004968C165046230BDFF8FFFFE002C0140EF
:104FA00000340140004001400044014000480140FD
:104FB00010B5036A046A24F001040462846924F0D1
:104FC000F00444EA021423F00A020A4384610262F4
:104FD00010BD10B5036A046A24F0100404628469E9
:104FE00023F0A00324F4704444EA023243EA01119E
:104FF0008261016210BD00000649084800229FED51
:10500000060ACA8080ED000A80ED010A80ED020ADE
:105010000A7070473E01002000000000980A00203E
:105020002DE9F041414C002522466178D2788AB0C2
:105030004FF0010804F10A06052975D2DFE801F0F6
:10504000030A0F222C00AA2801D184F801800AB09B
:10505000BDE8F081552867D1A570022010E0A17845
:105060007054491CC8B2A0700828F0D37078E07062
:105070002571202858D8657108B1032000E004206C
:105080006070E4E72A4B21795854491CC8B220715A
:105090009042DCD36571F2E7244B617908335854B0
:1050A000491CC8B260710228D1D31F88D4F80A0005
:1050B0000090D4F80E0001901D4902A8FBF7B0F94A
:1050C000E1786846083101F098FFB8422CD1327877
:1050D0001748E178202A27D1062925D1B0F90010F8
:1050E00000EE101AA0F10C01F8EEC00A9FED110AB3
:1050F00080EE801A81ED001AB0F902209FED0E1AA1
:1051000000EE902AF8EEE00AC0EE811AC1ED011A15
:10511000B0F9040000EE900AF8EEE00A80EE801A82
:1051200081ED021A84F80080657090E73E0100204E
:10513000A40A00200000C84200007A4410B5040010
:105140002DED028B8EB05CD0AA208DF82800552062
:105150008DF8290001208DF82A002B4906208DF8B2
:105160002B00C888ADF82C00401CC880FCF742FA20
:10517000CDF82E0094ED000A9FED248A20EE080A57
:10518000BDEEC00A10EE100A01F0CCFEADF8200012
:1051900094ED010A20EE080ABDEEC00A10EE100AD6
:1051A00001F0C0FEADF8220094ED020A20EE080ADC
:1051B000BDEEC00A10EE100A01F0B4FE0A9900918B
:1051C0000B990191BDF83010ADF82400ADF808102E
:1051D0000899CDF80A10BDF82410ADF80E100E2174
:1051E0000DF1020001F009FF8DF81000000A8DF8A2
:1051F00011001221684600F0B1F90EB0BDEC028B2F
:1052000010BD0020F9E700003E0100200000C84268
:1052100090F82410090706D501684A68436B22F408
:1052200000421A434A6090F82410C90706D001686A
:105230004A68836A22F400321A434A6090F82410C4
:10524000890706D501684A68C36A22F480321A4386
:105250004A6090F82410490706D501684A68036B34
:1052600022F480221A434A6090F82410C90606D519
:1052700001688A68836B22F480521A438A6090F82E
:105280002410890606D501688A68C36B22F400528F
:105290001A438A6090F82410490611D501684A68BB
:1052A000036C22F480121A434A60016CB1F5801F2E
:1052B00006D101684A68436C22F4C0021A434A606E
:1052C00090F82410090606D501684A68806C22F41B
:1052D000002202434A6070472DE9F8430026044645
:1052E000C0F88460FCF786F98046206800684FF0BB
:1052F000200500076FF07E4712D54346002229049F
:105300002046009700F0CAFA50B1216851E8000F1A
:1053100020F0800041E80002002AF6D1E56721E094
:1053200020680068400722D5434600224FF48001E0
:105330002046009700F0B2FAC8B1216851E8000F8A
:1053400020F4907041E80002002AF6D1206808306D
:1053500050E8001F21F0010140E80012002AF5D1B9
:10536000C4F8805084F878600320BDE8F883E567CE
:10537000C4F8805044F8606F666026760020F4E739
:1053800010B5806A0021A0F85A10A0F85210FEF75C
:105390001EFB10BD70B5846AE06FD4F880502168A0
:1053A00089684FF00006090606D5212804D1A4F823
:1053B0005260204600F0B4F820688068400606D5A8
:1053C000222D04D1A4F85A60204600F083F8D4F8C6
:1053D000840040F01000C4F884002046FEF7F7FA7D
:1053E00070BD10B50146806A096809684FF0000277
:1053F00089062DD4A0F85A20036853E8001F21F431
:10540000807143E80014002CF6D10168083151E89E
:10541000003F23F0010341E80034002CF5D101687E
:10542000083151E8003F23F0400341E80034002CEC
:10543000F5D12021C0F88010016E012908D1016842
:1054400051E8003F23F0100341E80034002CF6D16E
:105450004266016E012902D0FEF7CAFC10BDB0F809
:105460005810FEF771FA10BD10B5806A012141662F
:10547000016E012902D0FEF7BCFC10BDB0F8581037
:105480004908FEF761FA10BD10B50146806A096847
:105490000968890616D40021A0F852100168083165
:1054A00051E8002F22F0800241E80023002BF5D1C3
:1054B000026852E8001F41F0400142E80013002B4F
:1054C000F6D110BDFEF7DCFC10BD10B5806AFEF70A
:1054D000F7FC10BD016851E8002F22F4907241E8FA
:1054E0000023002BF6D10168083151E8002F22F08B
:1054F000010241E80023002BF5D1016E012908D1FA
:10550000026852E8001F21F0100142E80013002B4E
:10551000F6D12021C0F88010002101668166704715
:10552000026852E8001F21F0C00142E80013002B7E
:10553000F6D12021C1677047044800218180418055
:105540000181C1800170418102F062BA3201002004
:10555000002801D002F0D6B8704700002DE9F047CE
:105560000E46070008D03EB172B600250F4C4FF42E
:105570000079DFF83C8012E00020BDE8F087494662
:10558000E08801F0DFFF2189884201D162B6F3E7AC
:105590007A5DE38808F80320E0806D1CADB2B54267
:1055A000EDD362B602F048FA0120E6E732010020AE
:1055B000980800202DE9F0410446016880682269BE
:1055C000E3691043626900251A431043814F0A685A
:1055D000814B1A4002430A6020684168E26821F466
:1055E0004051114341602168A069B94201D0226A4B
:1055F00010438A6822F4306202438A607749226845
:1056000077488A420DD1D0F8880010F0030006D008
:10561000012866D0022854D0032851D163E001202C
:105620004FE070498A420BD1D0F8880010F00C008E
:1056300047D0042845D0082851D00C2840D152E04A
:1056400069498A420BD1D0F8880010F0300038D078
:10565000102846D0202842D0302831D143E0634979
:105660008A420BD1D0F8880010F0C00029D0402821
:1056700037D0802833D0C02822D134E05C498A4218
:105680000ED1D0F8880010F440701AD0B0F5807FA9
:1056900027D0B0F5007F22D0B0F5407F10D122E0B6
:1056A000BA420DD1D0F8880010F4406009D0B0F5AE
:1056B000806F16D0B0F5006F11D0B0F5406F12D0EA
:1056C00010204C4900264FF40043BA422ED160B15D
:1056D00002280DD004280DD008286FD10EE002203A
:1056E000EFE70420EDE70820EBE7FCF7CFFA03E053
:1056F0000B4603E0FCF7EEFA030060D0626802EBB1
:10570000420098425AD8B3EB023F57D8190E1B02F9
:105710005008181871410023FAF7C6FD364AA0F563
:10572000407191424AD82168C86048E0E2694FF66A
:10573000EF779A4227D1092840D2DFE800F0050828
:105740000D3F213F3F3F0E00FCF7A0FA01E0FCF7C0
:10575000AFFA030001D132E00B466068590001EB5B
:105760005001B1FBF0F0A0F11001B94226D84FF67C
:10577000F0710140C0F3420001432068C1601EE0A7
:10578000FCF7A8FAE5E7092818D2DFE800F00508D9
:105790000D171D1717170E00FCF778FA01E0FCF73C
:1057A00087FA030001D10AE00B46606803EB500161
:1057B000B1FBF0F0A0F11001B94208D90125A666AD
:1057C0002846E666BDE8F081FCF784FAE9E780B296
:1057D000A9E7000000800040F369FFEF00380140B6
:1057E000001002400044004000480040004C0040CF
:1057F000005000400024F400FFFC0F0070B541652C
:10580000A0F8582000210446C0F884102220C4F8D3
:105810008000606FD0B11E4BC362636F1D48186378
:10582000636F1D485863606F13468163656D21681F
:105830002A462431606FFBF77FFD38B11020C4F891
:1058400084002020C4F88000012070BD206940B190
:10585000216851E8000F40F4807041E80002002AFE
:10586000F6D12068083050E8001F41F0010140E8FF
:105870000012002AF5D12068083050E8001F41F0DE
:10588000400140E80012002AF5D1002070BD000060
:10589000E353000869540008955300082DE9F047C8
:1058A000994617460D4604464FF00008089E33E01F
:1058B000701C31D0FBF79EFEA0EB0900B04218D857
:1058C000BEB120680168490726D5802D24D0402D1F
:1058D00022D0C169C94309070DD4082505622046B5
:1058E000FFF7F8FDC4F8845084F878800120BDE803
:1058F000F0870320FBE7C069C04300050CD4216892
:105900004FF4006008622046FFF7E4FD2020C4F851
:10591000840084F87880ECE72068C06935EA0000EC
:1059200004D00020B842C3D00020E0E70120F9E70E
:105930000148FEF74DB8000094030020FEE703B4D1
:1059400001984100009850EAC12018BF04204A0D78
:1059500018BF40F0010040F2FF72B2EB515F08BF88
:1059600040F00200012808BF052002B07047090777
:10597000090E002804DB00F1E02080F800147047D5
:1059800000F00F0000F1E02080F8141D70470000C7
:1059900070B59B482DED020B2DED068B079D25F074
:1059A0000044A04218DC9748844202DC0AD10698E1
:1059B00040B19DED060BBDEC068B02B0BDE870401A
:1059C00001F01EB9002DCCBF9FED8F0B9FED900B0A
:1059D000BDEC068B02B070BD8F48A04215DD8F482C
:1059E000A042D8BF4FF0FF3458DD9DED060B51ECBF
:1059F000100BFFF7A4FF042808BF01F035F99DED57
:105A0000060BBDEC068B02B070BD9DED060B51EC94
:105A1000100B01F01EFBCDE9060181489FED828B42
:105A2000A0423CDD8248A0421FDD00249FED82ABF6
:105A30009DED060B53EC1A2B51EC100B02F010F9F4
:105A40009DED060B41EC190B53EC1A2B51EC100B8E
:105A500002F06EFB53EC182B02F076FD53EC192B81
:105A600002F0BAF9CDE9060149E09DED060B0124EB
:105A700053EC182B51EC100B02F0F2F89DED060BD5
:105A800041EC190B53EC182B51EC100B02F05CFDA0
:105A900053EC192B02F0A0F9CDE906012FE068487C
:105AA000A0421FDD02249FED689B9DED060B53EC89
:105AB000192B51EC100B02F03BFB53EC182B02F0AE
:105AC000CFF89DED060B41EC180B53EC192B51EC64
:105AD000100B02F039FD53EC182B02F07DF9CDE9E3
